:1000000000800020BD010000C16400008564000084
:10001000856400008564000085640000856400003C
:10002000856400008564000085640000C1640000F0
:10003000C164000085640000C164000075640000B4
:10004000C1640000C1640000C1640000C16400001C
:10005000C1640000C1640000C1640000C16400000C
:10006000C1640000C1640000C1640000C1640000FC
:10007000C1640000C1640000C1640000C1640000EC
:10008000C1640000C1640000C1640000C1640000DC
:10009000C1640000C1640000C1640000C1640000CC
:1000A000C1640000C1640000C1640000C1640000BC
:1000B000C1640000C1640000C1640000C1640000AC
:1000C000C1640000C1640000C1640000C16400009C
:1000D000C1640000C1640000C1640000C16400008C
:1000E000C1640000C1640000C1640000C16400007C
:1000F000C16400007D6A0000C164000079700000E6
:10010000C164000099750000C1640000C164000072
:10011000C1640000C1640000C1640000C16400004B
:10012000C1640000C1640000C1640000C16400003B
:10013000C1640000C1640000C1640000C16400002B
:10014000C1640000C1640000C1640000C16400001B
:10015000C1640000C1640000C1640000C16400000B
:10016000C16400005D520000C1640000C164000071
:10017000C1640000C1640000C1640000C1640000EB
:10018000C1640000C1640000C1640000C1640000DB
:10019000C1640000C1640000C1640000C1640000CB
:1001A000C1640000C1640000C1640000C1640000BB
:1001B000C1640000C1640000C1640000574B4CF2F0
:1001C000205210B51A804DF628121A8000BF00BFC9
:1001D00006F07AF9524B4FF010621A60514A9A6059
:1001E000514ADA60A3F53043203B1A6812F480725A
:1001F00004D14E490A604FF4A8521A604C4B1A7849
:10020000110703D51A7842F008021A70494B4A4C7C
:100210004A482A221A704A4A00239918A14203D256
:10022000195899500433F8E7464B474900228B424E
:1002300002D243F8042BFAE74448454900235A58B0
:100240001A500433B3F5DE7FF9D1424B424A802184
:1002500003F8011B9342FBD1404B3C4A1A60404BD0
:100260000A221A70A3F5805324225A70A0221A7011
:100270009A799207FCD59A79D406FCD4394A9379B5
:1002800003F00C03082B374BF9D103221A714022DB
:100290005A719A799006FCD5324A9179314B4906C8
:1002A000FBD5314A314911600221516020221A7078
:1002B0009A7902F00C020C2AFAD12D4B2D4A1A60C1
:1002C0002D4B2E4A1A6000225A60072243F8042C54
:1002D0002B4AC3F80C2D62B604F082FE134B1B6848
:1002E000DA0705D5274804F0DFFD274B274A1A60B7
:1002F000274B1B785B0609D5234C244A236893427D
:1003000004D1204804F0D0FD0023236008F020F839
:1003100006F0E0F805F026FFFEE700BF0E200540DE
:1003200030800440823F04000100002B14D00340C1
:1003300002D0074000E007401497FF1F18D10000CB
:10034000708CFF1F1497FF1F009DFF1F0082FF1F6F
:100350000000000000E400E05FE400E008ED00E0E1
:100360000050064000400640448004400000030165
:1003700004800440C010050014E000E0FF76010096
:1003800000002020A73154571CE00340A5C3945A15
:1003900000F00740FFFFFFFFFFFFFFFFFFFFFFFF32
:1003A000FFFFFFFFFFFFFFFFFFFFFFFFFFFFFFFF5D
:1003B000FFFFFFFFFFFFFFFFFFFFFFFFFFFFFFFF4D
:1003C000FFFFFFFFFFFFFFFFFFFFFFFFFFFFFFFF3D
:1003D000FFFFFFFFFFFFFFFFFFFFFFFFFFFFFFFF2D
:1003E000FFFFFFFFFFFFFFFFFFFFFFFFFFFFFFFF1D
:1003F000FFFFFFFFFFFFFFFFFFFFFFFFFFFFFFFF0D
:10040000FFFFFFFFFFFFFFFFFFFFFFFFFEFFFFFFFD
:1004100010B5054C237833B9044B13B10448AFF33E
:1004200000800123237010BD1497FF1F00000000FF
:1004300010D1000008B5064B1BB106480649AFF3C2
:1004400000800648036813B1054B03B1984708BD07
:100450000000000010D100001897FF1F1497FF1F25
:100460000000000010B4194B5B691A6814785A68D0
:1004700011785A7A11409A7A02F00302187A0442EB
:1004800018BF42F0040209B142F0080291109972BB
:10049000013A0D2A17D8DFE802F0070B0F0B1613ED
:1004A000070713160B0F0B07DA680132DA600AE050
:1004B000DA68013ADA6006E0DA680232DA6002E00D
:1004C000DA68023ADA605DF8044B70478898FF1FDB
:1004D00010B4194B1B691A6814785A6811785A7A43
:1004E00011409A7A02F00302187A044218BF42F0CF
:1004F000040209B142F0080291109972013A0D2AE2
:1005000017D8DFE802F0070B0F0B161307071316B7
:100510000B0F0B07DA680132DA600AE0DA68013A99
:10052000DA6006E0DA680232DA6002E0DA68023A9B
:10053000DA605DF8044B70478898FF1F10B4194BC0
:10054000DB681A6814785A6811785A7A11409A7AD6
:1005500002F00302187A044218BF42F0040209B103
:1005600042F0080291109972013A0D2A17D8DFE87B
:1005700002F0070B0F0B1613070713160B0F0B07D1
:10058000DA680132DA600AE0DA68013ADA6006E035
:10059000DA680232DA6002E0DA68023ADA605DF8BC
:1005A000044B70478898FF1F10B4194B9B681A685A
:1005B00014785A6811785A7A11409A7A02F0030234
:1005C000187A044218BF42F0040209B142F008024E
:1005D00091109972013A0D2A17D8DFE802F0070B43
:1005E0000F0B1613070713160B0F0B07DA680132F0
:1005F000DA600AE0DA68013ADA6006E0DA680232C4
:10060000DA6002E0DA68023ADA605DF8044B7047BB
:100610008898FF1F10B4194B5B681A6814785A68E1
:1006200011785A7A11409A7A02F00302187A044239
:1006300018BF42F0040209B142F008029110997209
:10064000013A0D2A17D8DFE802F0070B0F0B16133B
:10065000070713160B0F0B07DA680132DA600AE09E
:10066000DA68013ADA6006E0DA680232DA6002E05B
:10067000DA68023ADA605DF8044B70478898FF1F29
:1006800010B4194B1B681A6814785A6811785A7A92
:1006900011409A7A02F00302187A044218BF42F01D
:1006A000040209B142F0080291109972013A0D2A30
:1006B00017D8DFE802F0070B0F0B16130707131606
:1006C0000B0F0B07DA680132DA600AE0DA68013AE8
:1006D000DA6006E0DA680232DA6002E0DA68023AEA
:1006E000DA605DF8044B70478898FF1F10B41A4B0E
:1006F000D3F884301A6814785A6811785A7A1140FD
:100700009A7A02F00302187A044218BF42F00402F7
:1007100009B142F0080291109972013A0D2A17D8D6
:10072000DFE802F0070B0F0B1613070713160B0F6A
:100730000B07DA680132DA600AE0DA68013ADA6057
:1007400006E0DA680232DA6002E0DA68023ADA6079
:100750005DF8044B704700BF8898FF1F10B41A4B18
:10076000D3F880301A6814785A6811785A7A114090
:100770009A7A02F00302187A044218BF42F0040287
:1007800009B142F0080291109972013A0D2A17D866
:10079000DFE802F0070B0F0B1613070713160B0FFA
:1007A0000B07DA680132DA600AE0DA68013ADA60E7
:1007B00006E0DA680232DA6002E0DA68023ADA6009
:1007C0005DF8044B704700BF8898FF1F10B4194BA9
:1007D000DB6F1A6814785A6811785A7A11409A7A3D
:1007E00002F00302187A044218BF42F0040209B171
:1007F00042F0080291109972013A0D2A17D8DFE8E9
:1008000002F0070B0F0B1613070713160B0F0B073E
:10081000DA680132DA600AE0DA68013ADA6006E0A2
:10082000DA680232DA6002E0DA68023ADA605DF829
:10083000044B70478898FF1F10B4194B9B6F1A68C0
:1008400014785A6811785A7A11409A7A02F00302A1
:10085000187A044218BF42F0040209B142F00802BB
:1008600091109972013A0D2A17D8DFE802F0070BB0
:100870000F0B1613070713160B0F0B07DA6801325D
:10088000DA600AE0DA68013ADA6006E0DA68023231
:10089000DA6002E0DA68023ADA605DF8044B704729
:1008A0008898FF1F10B4194B5B6F1A6814785A6848
:1008B00011785A7A11409A7A02F00302187A0442A7
:1008C00018BF42F0040209B142F008029110997277
:1008D000013A0D2A17D8DFE802F0070B0F0B1613A9
:1008E000070713160B0F0B07DA680132DA600AE00C
:1008F000DA68013ADA6006E0DA680232DA6002E0C9
:10090000DA68023ADA605DF8044B70478898FF1F96
:1009100010B4194B1B6F1A6814785A6811785A7AF8
:1009200011409A7A02F00302187A044218BF42F08A
:10093000040209B142F0080291109972013A0D2A9D
:1009400017D8DFE802F0070B0F0B16130707131673
:100950000B0F0B07DA680132DA600AE0DA68013A55
:10096000DA6006E0DA680232DA6002E0DA68023A57
:10097000DA605DF8044B70478898FF1F10B4194B7C
:10098000DB6E1A6814785A6811785A7A11409A7A8C
:1009900002F00302187A044218BF42F0040209B1BF
:1009A00042F0080291109972013A0D2A17D8DFE837
:1009B00002F0070B0F0B1613070713160B0F0B078D
:1009C000DA680132DA600AE0DA68013ADA6006E0F1
:1009D000DA680232DA6002E0DA68023ADA605DF878
:1009E000044B70478898FF1F10B4194B9B6E1A6810
:1009F00014785A6811785A7A11409A7A02F00302F0
:100A0000187A044218BF42F0040209B142F0080209
:100A100091109972013A0D2A17D8DFE802F0070BFE
:100A20000F0B1613070713160B0F0B07DA680132AB
:100A3000DA600AE0DA68013ADA6006E0DA6802327F
:100A4000DA6002E0DA68023ADA605DF8044B704777
:100A50008898FF1F10B4194B5B6E1A6814785A6897
:100A600011785A7A11409A7A02F00302187A0442F5
:100A700018BF42F0040209B142F0080291109972C5
:100A8000013A0D2A17D8DFE802F0070B0F0B1613F7
:100A9000070713160B0F0B07DA680132DA600AE05A
:100AA000DA68013ADA6006E0DA680232DA6002E017
:100AB000DA68023ADA605DF8044B70478898FF1FE5
:100AC00010B4194B1B6E1A6814785A6811785A7A48
:100AD00011409A7A02F00302187A044218BF42F0D9
:100AE000040209B142F0080291109972013A0D2AEC
:100AF00017D8DFE802F0070B0F0B161307071316C2
:100B00000B0F0B07DA680132DA600AE0DA68013AA3
:100B1000DA6006E0DA680232DA6002E0DA68023AA5
:100B2000DA605DF8044B70478898FF1F10B4194BCA
:100B3000DB6D1A6814785A6811785A7A11409A7ADB
:100B400002F00302187A044218BF42F0040209B10D
:100B500042F0080291109972013A0D2A17D8DFE885
:100B600002F0070B0F0B1613070713160B0F0B07DB
:100B7000DA680132DA600AE0DA68013ADA6006E03F
:100B8000DA680232DA6002E0DA68023ADA605DF8C6
:100B9000044B70478898FF1F10B4194B9B6D1A685F
:100BA00014785A6811785A7A11409A7A02F003023E
:100BB000187A044218BF42F0040209B142F0080258
:100BC00091109972013A0D2A17D8DFE802F0070B4D
:100BD0000F0B1613070713160B0F0B07DA680132FA
:100BE000DA600AE0DA68013ADA6006E0DA680232CE
:100BF000DA6002E0DA68023ADA605DF8044B7047C6
:100C00008898FF1F10B4194B5B6D1A6814785A68E6
:100C100011785A7A11409A7A02F00302187A044243
:100C200018BF42F0040209B142F008029110997213
:100C3000013A0D2A17D8DFE802F0070B0F0B161345
:100C4000070713160B0F0B07DA680132DA600AE0A8
:100C5000DA68013ADA6006E0DA680232DA6002E065
:100C6000DA68023ADA605DF8044B70478898FF1F33
:100C700010B4194B1B6D1A6814785A6811785A7A97
:100C800011409A7A02F00302187A044218BF42F027
:100C9000040209B142F0080291109972013A0D2A3A
:100CA00017D8DFE802F0070B0F0B16130707131610
:100CB0000B0F0B07DA680132DA600AE0DA68013AF2
:100CC000DA6006E0DA680232DA6002E0DA68023AF4
:100CD000DA605DF8044B70478898FF1F10B4194B19
:100CE000DB6C1A6814785A6811785A7A11409A7A2B
:100CF00002F00302187A044218BF42F0040209B15C
:100D000042F0080291109972013A0D2A17D8DFE8D3
:100D100002F0070B0F0B1613070713160B0F0B0729
:100D2000DA680132DA600AE0DA68013ADA6006E08D
:100D3000DA680232DA6002E0DA68023ADA605DF814
:100D4000044B70478898FF1F10B4194B9B6C1A68AE
:100D500014785A6811785A7A11409A7A02F003028C
:100D6000187A044218BF42F0040209B142F00802A6
:100D700091109972013A0D2A17D8DFE802F0070B9B
:100D80000F0B1613070713160B0F0B07DA68013248
:100D9000DA600AE0DA68013ADA6006E0DA6802321C
:100DA000DA6002E0DA68023ADA605DF8044B704714
:100DB0008898FF1F10B4194B5B6C1A6814785A6836
:100DC00011785A7A11409A7A02F00302187A044292
:100DD00018BF42F0040209B142F008029110997262
:100DE000013A0D2A17D8DFE802F0070B0F0B161394
:100DF000070713160B0F0B07DA680132DA600AE0F7
:100E0000DA68013ADA6006E0DA680232DA6002E0B3
:100E1000DA68023ADA605DF8044B70478898FF1F81
:100E200010B4194B1B6C1A6814785A6811785A7AE6
:100E300011409A7A02F00302187A044218BF42F075
:100E4000040209B142F0080291109972013A0D2A88
:100E500017D8DFE802F0070B0F0B1613070713165E
:100E60000B0F0B07DA680132DA600AE0DA68013A40
:100E7000DA6006E0DA680232DA6002E0DA68023A42
:100E8000DA605DF8044B70478898FF1F10B4194B67
:100E9000DB6B1A6814785A6811785A7A11409A7A7A
:100EA00002F00302187A044218BF42F0040209B1AA
:100EB00042F0080291109972013A0D2A17D8DFE822
:100EC00002F0070B0F0B1613070713160B0F0B0778
:100ED000DA680132DA600AE0DA68013ADA6006E0DC
:100EE000DA680232DA6002E0DA68023ADA605DF863
:100EF000044B70478898FF1F10B4194B9B6B1A68FE
:100F000014785A6811785A7A11409A7A02F00302DA
:100F1000187A044218BF42F0040209B142F00802F4
:100F200091109972013A0D2A17D8DFE802F0070BE9
:100F30000F0B1613070713160B0F0B07DA68013296
:100F4000DA600AE0DA68013ADA6006E0DA6802326A
:100F5000DA6002E0DA68023ADA605DF8044B704762
:100F60008898FF1F10B4194B5B6B1A6814785A6885
:100F700011785A7A11409A7A02F00302187A0442E0
:100F800018BF42F0040209B142F0080291109972B0
:100F9000013A0D2A17D8DFE802F0070B0F0B1613E2
:100FA000070713160B0F0B07DA680132DA600AE045
:100FB000DA68013ADA6006E0DA680232DA6002E002
:100FC000DA68023ADA605DF8044B70478898FF1FD0
:100FD00010B4194B1B6B1A6814785A6811785A7A36
:100FE00011409A7A02F00302187A044218BF42F0C4
:100FF000040209B142F0080291109972013A0D2AD7
:1010000017D8DFE802F0070B0F0B161307071316AC
:101010000B0F0B07DA680132DA600AE0DA68013A8E
:10102000DA6006E0DA680232DA6002E0DA68023A90
:10103000DA605DF8044B70478898FF1F10B4194BB5
:10104000DB6A1A6814785A6811785A7A11409A7AC9
:1010500002F00302187A044218BF42F0040209B1F8
:1010600042F0080291109972013A0D2A17D8DFE870
:1010700002F0070B0F0B1613070713160B0F0B07C6
:10108000DA680132DA600AE0DA68013ADA6006E02A
:10109000DA680232DA6002E0DA68023ADA605DF8B1
:1010A000044B70478898FF1F10B4194B9B6A1A684D
:1010B00014785A6811785A7A11409A7A02F0030229
:1010C000187A044218BF42F0040209B142F0080243
:1010D00091109972013A0D2A17D8DFE802F0070B38
:1010E0000F0B1613070713160B0F0B07DA680132E5
:1010F000DA600AE0DA68013ADA6006E0DA680232B9
:10110000DA6002E0DA68023ADA605DF8044B7047B0
:101110008898FF1F10B4194B5B6A1A6814785A68D4
:1011200011785A7A11409A7A02F00302187A04422E
:1011300018BF42F0040209B142F0080291109972FE
:10114000013A0D2A17D8DFE802F0070B0F0B161330
:10115000070713160B0F0B07DA680132DA600AE093
:10116000DA68013ADA6006E0DA680232DA6002E050
:10117000DA68023ADA605DF8044B70478898FF1F1E
:1011800010B4194B1B6A1A6814785A6811785A7A85
:1011900011409A7A02F00302187A044218BF42F012
:1011A000040209B142F0080291109972013A0D2A25
:1011B00017D8DFE802F0070B0F0B161307071316FB
:1011C0000B0F0B07DA680132DA600AE0DA68013ADD
:1011D000DA6006E0DA680232DA6002E0DA68023ADF
:1011E000DA605DF8044B70478898FF1F10B4194B04
:1011F000DB691A6814785A6811785A7A11409A7A19
:1012000002F00302187A044218BF42F0040209B146
:1012100042F0080291109972013A0D2A17D8DFE8BE
:1012200002F0070B0F0B1613070713160B0F0B0714
:10123000DA680132DA600AE0DA68013ADA6006E078
:10124000DA680232DA6002E0DA68023ADA605DF8FF
:10125000044B70478898FF1F10B4194B9B691A689C
:1012600014785A6811785A7A11409A7A02F0030277
:10127000187A044218BF42F0040209B142F0080291
:1012800091109972013A0D2A17D8DFE802F0070B86
:101290000F0B1613070713160B0F0B07DA68013233
:1012A000DA600AE0DA68013ADA6006E0DA68023207
:1012B000DA6002E0DA68023ADA605DF8044B7047FF
:1012C0008898FF1F70B504460E4615460846022151
:1012D00003F02CFE2846022103F028FEA64A52F80D
:1012E000363003F5007121600121217252F835205A
:1012F00002F50070606061720021E1604FF47A4194
:1013000001397FF4FDAF93F8003203F0010392F846
:10131000002212F0010F1CBF43F00203DBB2A372E4
:10132000212E00F29681DFE816F022002B00340017
:101330003D0046004F00580061006A0073007C00C9
:1013400085008E009700A000A900B200BB00C40079
:10135000CD00D600DF00E800F100FA0003010C0127
:1013600015011E0165016E01770180018A01834B21
:101370001C6000208249042203F04EFD012369E134
:101380007E4B5C6001207F49042203F045FD012370
:1013900060E17A4B9C6002207B49042203F03CFD13
:1013A000012357E1754BDC6003207849042203F0E8
:1013B00033FD01234EE1714B1C6104207449024648
:1013C00003F02AFD012345E16C4B5C610520714966
:1013D000042203F021FD01233CE1684B9C610620BF
:1013E0006D49042203F018FD012333E1634BDC61F6
:1013F00007206A49042203F00FFD01232AE15F4B15
:101400001C6208206649042203F006FD012321E145
:101410005A4B5C6209206349042203F0FDFC01235E
:1014200018E1564B9C620A205F49042203F0F4FC49
:1014300001230FE1514BDC620B205C49042203F0D5
:10144000EBFC012306E14D4B1C630C2058490422A0
:1014500003F0E2FC0123FDE0484B5C630D2055499D
:10146000042203F0D9FC0123F4E0444B9C630E20DA
:101470005149042203F0D0FC0123EBE03F4BDC6335
:101480000F204E49042203F0C7FC0123E2E03B4B4E
:101490001C6410204A49042203F0BEFC0123D9E059
:1014A000364B5C6411204749042203F0B5FC01234C
:1014B000D0E0324B9C6412204349042203F0ACFC80
:1014C0000123C7E02D4BDC6413204049042203F0C4
:1014D000A3FC0123BEE0294B1C6514203C490422D7
:1014E00003F09AFC0123B5E0244B5C6515203949D3
:1014F000042203F091FC0123ACE0204B9C651620F4
:101500003549042203F088FC0123A3E01B4BDC6572
:1015100017203249042203F07FFC01239AE0174B85
:101520001C6618202E49042203F076FC012391E06A
:10153000124B5C6619202B49042203F06DFC012339
:1015400088E00E4B9C661A202749042203F064FCB5
:1015500001237FE0094BDC661B202449042203F0B1
:101560005BFC012376E0054B1C671C20204904220C
:1015700003F052FC01236DE010CC00008898FF1F9F
:101580008106000015060000A90500003D050000C9
:10159000D10400006504000059120000ED110000A4
:1015A0008111000015110000A91000003D1000007D
:1015B000D10F0000650F0000F90E00008D0E000035
:1015C000210E0000B50D0000490D0000DD0C0000EB
:1015D000710C0000050C0000990B00002D0B0000A1
:1015E000C10A0000550A0000E90900007D09000059
:1015F00011090000A54B5C671D20A549042203F0DA
:101600000BFC012326E0A14B9C671E20A14904226C
:1016100003F002FC01231DE09C4BDC671F209E4968
:10162000042203F0F9FB012314E0984BC3F8804037
:1016300020209A49042203F0EFFB01230AE0934B98
:10164000C3F8844021209649042203F0E5FB0123DE
:1016500000E000232374212D00F29B81DFE815F0C8
:1016600022002B0034003D0046004F00580061006E
:101670006A0073007C0085008E009700A000A9001E
:10168000B200BB00C400CD00D600DF00E800F100CE
:10169000FA0003010C01580161016A0173017C0128
:1016A00085018F01794B1C6000207E49042203F0E4
:1016B000B3FB01226EE1754B5C6001207A49042284
:1016C00003F0AAFB012265E1704B9C600220774980
:1016D000042203F0A1FB01225CE16C4BDC600320DF
:1016E0007349042203F098FB012253E1674B1C610C
:1016F00004207049024603F08FFB01224AE1634B4C
:101700005C6105206C49042203F086FB012241E163
:101710005E4B9C6106206949042203F07DFB012297
:1017200038E15A4BDC6107206549042203F074FB61
:1017300001222FE1554B1C6208206249042203F06C
:101740006BFB012226E1514B5C6209205E490422B9
:1017500003F062FB01221DE14C4B9C620A205B49B5
:10176000042203F059FB012214E1484BDC620B20F8
:101770005749042203F050FB01220BE1434B1C6349
:101780000C205449042203F047FB012202E13F4BA5
:101790005C630D205049042203F03EFB0122F9E076
:1017A0003A4B9C630E204D49042203F035FB012285
:1017B000F0E0364BDC630F204949042203F02CFB98
:1017C0000122E7E0314B1C6410204649042203F05B
:1017D00023FB0122DEE02D4B5C64112042490422F0
:1017E00003F01AFB0122D5E0284B9C6412203F49EC
:1017F000042203F011FB0122CCE0244BDC64132013
:101800003B49042203F008FB0122C3E01F4B1C6587
:1018100014203849042203F0FFFA0122BAE01B4BDE
:101820005C6515203449042203F0F6FA0122B1E088
:10183000164B9C6516203149042203F0EDFA012273
:10184000A8E0124BDC6517202D49042203F0E4FACE
:1018500001229FE00D4B1C6618202A49042203F048
:10186000DBFA012296E0094B5C6619202649042226
:1018700003F0D2FA01228DE0044B9C661A20234922
:10188000042203F0C9FA012284E000BF8898FF1FF8
:10189000A508000039080000CD0700005D07000022
:1018A000ED0600008106000015060000A9050000F5
:1018B0003D050000D104000065040000591200003D
:1018C000ED1100008111000015110000A9100000A9
:1018D0003D100000D10F0000650F0000F90E000060
:1018E0008D0E0000210E0000B50D0000490D000016
:1018F000DD0C0000710C0000050C0000990B0000CD
:101900002D0B0000C10A0000550A0000E909000083
:10191000234BDC661B202349042203F07DFA0122BD
:1019200038E01F4B1C671C201F49042203F074FA87
:1019300001222FE01A4B5C671D201C49042203F092
:101940006BFA012226E0164B9C671E2018490422E0
:1019500003F062FA01221DE0114BDC671F201549DC
:10196000042203F059FA012214E00D4BC3F8804021
:1019700020201149042203F04FFA01220AE0084B0B
:10198000C3F8844021200D49042203F045FA0122C6
:1019900000E00022237C13442374204670BD00BF66
:1019A0008898FF1F7D09000011090000A5080000AC
:1019B00039080000CD0700005D070000ED060000BB
:1019C0002DE9F04F89B004F0D3F9002840F3D78017
:1019D00004F0CEF9112840F3A88004F07DF9FF2827
:1019E00040F0CD8004F078F90646C5B204F074F9F1
:1019F000644B187004F070F9834604F06DF9824668
:101A000004F06AF9814604F067F9804604F064F94D
:101A1000074604F061F9019004F05EF95A4B187022
:101A200004F05AF9044604F057F9584B187004F0C2
:101A300053F9014604A80A2204F070FB544804A993
:101A400004F052FB04A804F0D1FA04F045F9029026
:101A500004F042F9039004F03FF905F00F024D4BFA
:101A60001A70C6F302164C4B1E60ED094B4B1D60FD
:101A700014F0010F14BF10220022494B1A70C4F356
:101A80004102484B1A60C4F3C002474B1A60C4F3CA
:101A90000012464B1A70C4F34013454A1370C4F346
:101AA0008014444A14705FFA8BF15FFA8AFA4AEAAA
:101AB0000121414A11605FFA89F15FFA88F848EA2A
:101AC00001213E4A1160FFB20199CAB242EA0727DA
:101AD0003B4A17601BB13B4B1A683B4B1A60BCB1C9
:101AE000384B1A68394B1A60029BDAB20399CBB2B1
:101AF00043EA0223C3F30901354A11605B0A354A00
:101B00001360C0B2344B18600122344B1A7007E0E6
:101B1000029BDAB20399CBB243EA0222304B1A603D
:101B2000284B1A682F4B1A6029E004F021F901288C
:101B300025DD04F01DF9032821DC04F0CDF82A4C42
:101B400023685B682046294901229847284D204692
:101B500029780A22002304F00DFA204669780A2227
:101B6000002304F007FA2046A9780A22002304F093
:101B700001FA2046E9780A22002304F0FBF909B0B3
:101B8000BDE8F08F4098FF1F8D97FF1F5897FF1FEC
:101B9000F897FF1F2998FF1F6498FF1F5C98FF1F8D
:101BA0008C97FF1FA897FF1FEC97FF1F8E97FF1FB3
:101BB0001598FF1F1498FF1F9C97FF1F5C97FF1F2E
:101BC0006898FF1F9899FF1F9097FF1F6897FF1F46
:101BD0005898FF1FAC97FF1F6497FF1F6097FF1F68
:101BE000F497FF1F7497FF1FD49AFF1F54C600007D
:101BF000748CFF1F10B586B01F4B1B782BB91F4A82
:101C000013601F4A13601F4A13601C4B1B68632B31
:101C100002DD6322194B1A60184B1A68184B1B68B7
:101C200018490968009103A8174907F013F9174CE0
:101C3000192300930023019320467821CD22B42359
:101C400001F004FC20467821CD2202F059FF204605
:101C50004FF6FF7102F074FF2046032102F06AFF85
:101C600003A807F07BF9024623685B68204603A9B6
:101C7000984706B010BD00BF8E97FF1F6497FF1FE7
:101C8000AC97FF1F5898FF1F58C60000C497FF1F4E
:101C90002DE9F84307460024A0462646DFF8449085
:101CA000A74206DD14F809100B4BE05C0B4BE25C1D
:101CB00002E042463046314600F0BAFE0246084D88
:101CC0002846A1B200F090FE284600F0FDFD013448
:101CD000082CE5D1BDE8F883ECC50000E0C50000A4
:101CE000B097FF1FD4C5000030B587B004461D482B
:101CF000072102F01FFF1C4B1B78A3422FD01A4B69
:101D00001C707CB1012C0FD002A8611E0A2204F0C5
:101D100005FA02A8002104F021FA054602A804F001
:101D200065F902E0522500E04E250E4C3C2300935D
:101D30000023019320468C216422282301F086FB96
:101D400020468C21642202F0DBFE20464FF6FF7114
:101D500002F0F6FE23681B6820462946984707B024
:101D600030BD00BFC497FF1F6C97FF1F10B584B034
:101D70000246174B1B68984227D0154B186002A8E3
:101D8000144907F067F8144C1923009300230193BA
:101D9000204675211C225A2301F058FB204675214C
:101DA0001C2202F0ADFE20464FF6FF7102F0C8FE85
:101DB0002046032102F0BEFE02A807F0CFF802463B
:101DC00023685B68204602A9984704B010BD00BF95
:101DD0006098FF1F68C60000C497FF1F10B584B04D
:101DE0000246174B1B78834227D0154B187002A868
:101DF000144907F02FF8144C192300930023019382
:101E00002046F0211C22322301F020FB2046F02145
:101E10001C2202F075FE20464FF6FF7102F090FE84
:101E20002046032102F086FE02A807F097F802463A
:101E300023685B68204602A9984704B010BD00BF24
:101E40009897FF1F70C60000C497FF1F10B584B09D
:101E50000246174B1B68984227D0154B186002A802
:101E6000144906F0F7FF144C172300930023019345
:101E700020461E2178223C2301F0E8FA20461E214C
:101E8000782202F03DFE20464FF6FF7102F058FE28
:101E90002046032102F04EFE02A807F05FF802463A
:101EA00023685B68204602A9984704B010BD00BFB4
:101EB000E897FF1F70C60000C497FF1F10B584B0DD
:101EC0000246174B1B68984227D0154B186002A892
:101ED000144906F0BFFF144C17230093002301930D
:101EE0002046F02178223C2301F0B0FA2046F02170
:101EF000782202F005FE20464FF6FF7102F020FE28
:101F00002046032102F016FE02A807F027F8024639
:101F100023685B68204602A9984704B010BD00BF43
:101F20007097FF1F70C60000C497FF1F08B510F020
:101F3000100F23D110291BD11E4B1A681E4B1B6892
:101F4000D31A322B35D91D4B1B7833B90020FFF73C
:101F50009FFE0122194B1A7005E0FF20FFF798FE43
:101F60000022164B1A70134B1A68134B1A6008BDE7
:101F7000134B33F92100FFF78BFE08BD0D4B1A6898
:101F80000D4B1B68D31AC82B13D90C4B1B7833B9D4
:101F90000020FFF77DFE0122084B1A7005E00820A3
:101FA000FFF776FE0022054B1A70024B1A68024BAF
:101FB0001A6008BD9899FF1FA497FF1F2898FF1F5C
:101FC000F8C5000008B5234B1B68012B10D0022B6D
:101FD0001DD0002B2FD1204B1868FFF7C7FE1F4BD9
:101FE0001868FFF733FF1B4B1A6801321A6025E0AF
:101FF0001B4B1878FFF778FE1A4B18781A4B197894
:10200000FFF794FF134B1A6801321A6016E0174B62
:102010001868FFF753FF164B1B7823B1FFF7EAFD53
:102020000022134B1A70134B1878FFF7D7FE0022CB
:10203000084B1A6002E00022064B1A600E4B1B6828
:102040000E4A1268D31A0F2B03D90B4B1A680B4B8D
:102050001A6008BD9497FF1F5C97FF1F6898FF1FC9
:102060004098FF1F8C97FF1F8D97FF1F9C97FF1FA6
:102070006097FF1F1498FF1F9899FF1FA097FF1FDD
:102080002DE9F04784B09F4C204601F09FFC20468C
:10209000002101F0C9FB9C4800F00AFC2046032106
:1020A00001F0D2FB2046002101F0BEFB642700971F
:1020B0000A2601964FF6FF79CDF8089020466E214A
:1020C0004B223B4601F0AAFF4FF01408CDF80080E8
:1020D00003250195CDF80890204678214122502310
:1020E00002F01CF82046002102F02AFD204689213A
:1020F000442202F005FD2046022102F01BFD236868
:102100005B682046814904229847009701964FF664
:10211000E079CDF80890204605214B223B4601F09E
:102120007DFFCDF800800195CDF8089020460F2165
:102130004122502301F0F2FF2046002102F000FD71
:1021400020462021442202F0DBFC2046022102F03E
:10215000F1FC23685B6820466D490422984700978C
:10216000019640F2FF79CDF808902046D7214B2206
:102170003B4601F053FFCDF800800195CDF8089063
:102180002046E1214122502301F0C8FF2046F821DA
:10219000442202F0B5FC2046022102F0CBFC236869
:1021A0005B6820465B492A4698474FF03209CDF8D4
:1021B000009001964FF4FC6ACDF808A020466E21ED
:1021C00032463B4601F02AFFCDF800800195CDF85C
:1021D00008A0204678210022502301F09FFF2046CE
:1021E000002102F0ADFC20468F212A4602F088FC37
:1021F0002046022102F09EFC23685B682046464987
:102200002A469847CDF8009001964FF6A00ACDF8DF
:1022100008A02046D72132463B4601F0FFFECDF80C
:1022200000800195CDF808A02046E121002250232E
:1022300001F074FF2046002102F082FC2046F821C4
:102240002A4602F05DFC2046022102F073FC23685E
:102250005B68204631492A469847CDF800900196A0
:102260004AF6EC76029620460521BE224FF49B7377
:1022700001F0D4FECDF800800195029620460F2192
:10228000B422502301F04AFF20462021B72202F059
:1022900037FC2046022102F04DFC23685B68204693
:1022A0001F490422984701251E4B1D601E4B1D60CF
:1022B00000241E4B1C701E4B1D601E4B1D702046C3
:1022C000FFF7C4FD0720FFF70FFD2046FFF74EFD87
:1022D0002046FFF7F3FD0720FFF7DAFC2046FFF763
:1022E0007DFDFFF787FC40F6B83002F063FE124B2D
:1022F0001D702846FFF7F8FC2046FFF7C9FC04B024
:10230000BDE8F087C497FF1FB097FF1F78C6000095
:1023100080C6000088C600008CC6000090C6000081
:1023200094C600006098FF1F7097FF1F6C97FF1FF7
:10233000E897FF1F9897FF1F4098FF1FF8B50023ED
:1023400025481A4625491A545A540133112BFAD1FB
:10235000234E341F2836022554F8040FC0B22946F4
:1023600002F0E4FDB442F7D11E491F4808601F4A3D
:1023700014681F4B1C60486014685C6088601268B9
:102380009A6000241B4D01271B4EE3B21F2B09D876
:1023900007FA04F22B6823EA02032B6033780BB9A7
:1023A00003F042FB0134202CEFD1FFF769FE00233C
:1023B000124A1370124A1370124A1360124A1360C1
:1023C0000C4B5A6842F00F025A600B4B1B780BB94A
:1023D00003F02AFBF8BD00BF7897FF1F2C98FF1F62
:1023E000A8C500000898FF1F19FCFFFF9899FF1F60
:1023F0001C98FF1FE49CFF1FCA9AFF1F2898FF1F0D
:10240000F097FF1F6498FF1F1898FF1FF8B5044648
:10241000012844D0022800F08180002840F0578134
:102420005B4B1B7C012B35D872B6594B1A68107860
:102430005A6811785A7A11409A7A02F003021B7A8C
:10244000184218BF42F0040209B142F0080291108C
:102450004F4B9972013A0D2A1DD8DFE802F0070CA4
:10246000110C1C160707161C0C110C07484BDA68D8
:102470000132DA600FE0464BDA68013ADA600AE0CE
:10248000434BDA680232DA6005E0414BDA68023A1F
:10249000DA6000E072B63E4BDD6862B682E03D4B2A
:1024A0001B7C012B35D872B63A4B1A6810785A68E3
:1024B00011785A7A11409A7A02F003021B7A184274
:1024C00018BF42F0040209B142F008029110314BEA
:1024D0009972013A0D2A1DD8DFE802F0070C110CA1
:1024E0001C160707161C0C110C072A4BDA68013260
:1024F000DA600FE0274BDA68013ADA600AE0254B30
:10250000DA680232DA6005E0224BDA68023ADA6011
:1025100000E072B61F4BDD6862B643E01E4B1B7CC9
:10252000012B3BD872B61C4B1A6810785A68117888
:102530005A7A11409A7A02F003021B7A184218BFA5
:1025400042F0040209B142F008029110124B997254
:10255000013A0D2A23D8DFE802F0070C110C2216ED
:10256000070716220C110C070B4BDA680132DA60F0
:1025700015E0094BDA68013ADA6010E0064BDA68D8
:102580000232DA600BE0044BDA68023ADA6006E005
:102590003097FF1F4497FF1F4498FF1F72B64C4BA4
:1025A000DD6862B64B4B53F82430AB4259D04A4BEE
:1025B00053F82470013FFFB21F2F0BD8474B012166
:1025C000B9401A6822EA01021A60454B1B780BB920
:1025D00003F02AFAE21C404B53F82260013EF6B2A7
:1025E0001F2E0BD83D4B0121B1401A6822EA01028F
:1025F0001A603B4B1B780BB903F016FA4FF4FA53F1
:10260000013B7FF4FDAF334B53F824309D420DDD89
:102610001F2F0BD8314B012202FA07F71A683A43F1
:102620001A602F4B1B780BB903F0FEF9294B53F8B6
:1026300024309D420DDA1F2E0BD8284B012202FABE
:1026400006F61A6832431A60254B1B780BB903F063
:10265000EBF9204B43F82450224B1A68224B43F8E5
:102660002420204B1B68204A52F82420D31A1E2B0A
:102670002DD9194B53F82430013BDBB21F2B0CD85A
:10268000164A012101FA03F3116821EA03011160DE
:10269000134B1B780BB903F0C7F9E21C0E4B53F830
:1026A0002230013BDBB21F2B0CD80C4A012101FA6E
:1026B00003F3116821EA03011160094B1B780BB980
:1026C00003F0B2F9074B1A68074B43F82420F8BD12
:1026D0004498FF1F0898FF1F3CC60000E49CFF1FA2
:1026E000CA9AFF1F9899FF1F1C98FF1F10B5044638
:1026F000154B13F8200002F00BFC10F0010F11D065
:10270000E3B21F2B1ED8114BE4B2012202FA04F4EB
:102710001A6822EA04021A600D4B1B7893B903F081
:1027200083F910BDE3B21F2B0CD8084BE4B2012291
:1027300002FA04F41A6822431A60054B1B780BB99D
:1027400003F072F910BD00BFA8C50000E49CFF1F94
:10275000CA9AFF1F10B5104B1A68104B1B68D31A8A
:10276000B3F57A7F02D900220D4B1A70FFF728F9D2
:10277000FFF728FC00242046FFF7B8FF01340B2C9C
:10278000F9D10020FFF742FE0120FFF73FFE0220B3
:10279000FFF73CFE10BD00BF9899FF1F7497FF1F05
:1027A0008E97FF1F30B585B0194D2846082110229D
:1027B000022300F03FF8174C28461749224605F03F
:1027C000B7FD0B2300930D2301930C2302931348B1
:1027D0000A210F220E2300F059FA1148112112226A
:1027E000FEF770FD0F4813211422FEF76BFD0E4813
:1027F00015211622FEF766FD0C4D2846002103F038
:1028000041FC28460A49224605F092FD05B030BD3C
:10281000B097FF1F708CFF1F99280000C497FF1FFF
:102820003097FF1F4497FF1F4498FF1FF897FF1F23
:10283000ED5F000070B504461E46018001EB4101CA
:102840008DB24580027100234371C673036128462F
:1028500005F0A6FDA06018B100212A4606F0ACF8EC
:1028600016F0010F06D001232373002363730223A4
:10287000A3730FE016F0040F06D001232373022385
:1028800063730023A37305E00023237301236373A1
:102890000223A373204670BD10B50446806808B1BA
:1028A00005F086FD2079002102F040FB204610BD96
:1028B00010B504460079012102F038FB207900218F
:1028C00002F002FB10BD00BF2DE9F047044683680B
:1028D000002B7FD002F04CFB2369C01A3128F9D9B4
:1028E00072B6A768B4F802E0BE4422793A4B53F8B6
:1028F00032003A4B1A6842F080721A60384B1A68FC
:1029000042F001021A60E37B13F0020F2FD0354B27
:102910001B687833774524D24FF0080A4FF08009BE
:10292000304A4FF0010C17F8018B56464D4611689E
:10293000C91A7729FBD9136880F880C015EA080FF7
:1029400004D01168C91A4B29FBD903E01168C91AD0
:102950001729FBD980F800C16D08013EE7D1774502
:10296000E1D120490A68D21A772AFBD92EE01D4B03
:102970001B68F033774524D24FF0080A4FF08009E6
:10298000184A4FF0010C17F8018B56464D46116856
:10299000C91AEF29FBD9136880F880C015EA080F1F
:1029A00004D01168C91A7229FBD903E01168C91A49
:1029B0002F29FBD980F800C16D08013EE7D177458A
:1029C000E1D108490A68D21AEF2AFBD962B602F0AF
:1029D000CFFA2061BDE8F08710CC0000FCED00E0EC
:1029E000001000E0041000E070B403888B421DD991
:1029F000160C150A43791BB9F6B2EDB2D2B20BE050
:102A0000F6B203FB06F6360AEDB205FB03F52D0A16
:102A1000D2B202FB03F2120A01EB410184682144A5
:102A2000037BCE54437BCD54807B0A5470BC7047EB
:102A300042EA012242EA0040704700BF184B1A6880
:102A400042F480521A60174B174A1A60174ADA602C
:102A500002F180421A61164A1A60164B1B7813F075
:102A6000010F07BF4FF41072134B4FF40072134B5A
:102A70001A60104B1B7813F0020F4FF400720CBF5A
:102A80000F4B104B1A600B4B1B7813F0040F07BF52
:102A90004FF410720C4B4FF400720C4B1A607047DD
:102AA0003C80044000C0024001401F00011000387B
:102AB00000001F80C99AFF1F18B0044008C00440DE
:102AC0001CB004400CC0044014B0044004C00440D6
:102AD000A0F10903DBB2012B0CD900F0FB03022BA0
:102AE0000AD00F280AD01438C0B203288CBF0020A7
:102AF0000120704701207047012070470120704776
:102B000038B504460D46FFF7E3FF034600283BD0E7
:102B10002846FFF7DDFF0346B0B3022C02D10A2D91
:102B20000AD128E00A2C02D1022D0AD125E0062C78
:102B300002D1092D0AD122E0092C02D1062D0CD197
:102B40001FE0142C02D1172D0ED11CE0172C04D13C
:102B5000B5F1140318BF012316E0152C04D1B5F10B
:102B6000160318BF01230FE0162C0DD1B5F1150384
:102B700018BF012308E0002306E0002304E000233F
:102B800002E0002300E00023184638BD0238152873
:102B900042D8DFE800F0114141411D4141170B418E
:102BA0004141413B41414141232F35294FF40072BE
:102BB0001A4B1A60012070474FF40072184B1A60CC
:102BC000012070474FF40072164B1A6002207047C4
:102BD0004FF40072144B1A60022070474FF40072D9
:102BE000124B1A60042070474FF40072104B1A60A9
:102BF000042070474FF400720E4B1A600820704793
:102C00004FF400720C4B1A60082070474FF40072AA
:102C10000A4B1A60102070470020704710B0044023
:102C200000C004400CB0044010C0044014C0044074
:102C300008B0044018C0044004B0044000B0044090
:102C4000F0B4074600204FF0010CCB08FC5C01F00B
:102C50000703C3F108039A420BD300FA03F50CFAF9
:102C600003F6013E344044EA05001944D21AECD17F
:102C70000AE090409B1A44FA03F3012101FA02F2A0
:102C8000013A1340DBB21843F0BC704770B4002522
:102C90000571114E06604177827703779DF80C30FD
:102CA00080F822309DF8103080F823309DF81430E1
:102CB00080F82130F023C3804FF4A0730381C574E2
:102CC00045818581012383744FF6FF720282C281A0
:102CD0000375856170BC704708CC000070B4002992
:102CE000C0F20881B0F906408C4240F30381002A0B
:102CF000C0F20081B0F90840944240F3FB807E4C62
:102D00002478002C28D072B67B4C247814F0010F64
:102D100007D07A4C26687A4D2D683540794E35605B
:102D20002560754C247814F0020F07D0764C266885
:102D3000734D6D683540734E756025606E4C247818
:102D400014F0040F07D0714C26686D4DAD68354006
:102D50006C4EB560256062B66D4CE468B4F1384FD6
:102D60000AD06B4C6B4D25604FF03845E5604FF055
:102D700078452561684D25608EB292B290F820109A
:102D8000090441F0004141F02A01614C6163E16AAC
:102D900011F0F00F18BFA56B01F47041B1F5405F61
:102DA000F5D8C47F46EA044444F0104458494C63C3
:102DB0000C46E16A11F0F00F18BFA56B01F47041E9
:102DC000B1F5405FF5D8C17F46EA014646F01046AE
:102DD0004F494E630C46E16A11F0F00F18BFA56B26
:102DE00001F47041B1F5405FF5D890F82010090466
:102DF00041F0004141F02B01454C6163E16A11F063
:102E0000F00F18BFA56B01F47041B1F5405FF5D824
:102E1000C47F42EA044444F010443D494C630C46EC
:102E2000E16A11F0F00F18BFA56B01F47041B1F524
:102E3000405FF5D8C17F42EA014242F01042344976
:102E40004A63CA6A12F0F00F18BF8C6B02F470422A
:102E5000B2F5405FF5D890F82020120442F000420D
:102E600042F02C022A494A63CA6A12F0F00F18BFD6
:102E70008C6B02F47042B2F5405FF5D8244A1168B9
:102E8000C07F43EA004343F0C0535363D36A13F057
:102E9000805F04D113F0F00FF8D0936BF6E71C4B72
:102EA0004FF08052DA621960DB6A13F0F00F05D040
:102EB000174B9A6BDA6A12F0F00FFAD10E4B1B78AF
:102EC000C3B113F0010F03D00E4B1A68134B1A60F5
:102ED000094B1B7813F0020F03D00A4B5A68104BB2
:102EE0001A60054B1B7813F0040F03D0054B9A684A
:102EF0000C4B1A6070BC70478498FF1F80E100E0A3
:102F00006C98FF1F7898FF1F84E100E088E100E0E3
:102F100000C0024001401F0000001F8000E100E0EF
:102F200004E100E008E100E0F0B4BDF81040B0F9C1
:102F300006608E4240F3268105892EB2964240F308
:102F40002181D718013FB742A4BFC2EB05031BB2D2
:102F50008D4D2D78002D28D072B68B4D2D7815F023
:102F6000010F07D0894D2F68894E36683E40894F42
:102F70003E602E60844D2D7815F0020F07D0864DEF
:102F80002F68834E76683E40824F7E602E607E4D75
:102F90002D7815F0040F07D0804D2F687C4EB66851
:102FA0003E407C4FBE602E6062B67D4DED68B5F14F
:102FB000384F0AD07A4D7B4E2E604FF03846EE6087
:102FC0004FF078462E61784E2E608FB291B29DB24E
:102FD0004A1E2A4492B290F820301B0443F000436A
:102FE00043F02A036E4E7363F36A13F0F00F18BFB9
:102FF000D6F838C003F47043B3F5405FF4D8C67F09
:1030000047EA064646F01046654B5E631E46F36A85
:1030100013F0F00F18BFD6F838C003F47043B3F5BF
:10302000405FF4D8C67F47EA064646F010465C4B40
:103030005E631E46F36A13F0F00F18BFB76B03F41C
:103040007043B3F5405FF5D890F820301B0443F08F
:10305000004343F02B03524E7363F36A13F0F00FF7
:1030600018BFB76B03F47043B3F5405FF5D8C37F67
:1030700041EA034141F01041494B59631946CB6A7B
:1030800013F0F00F18BF8E6B03F47043B3F5405F7D
:10309000F5D8C37F42EA034242F01042404B5A63E4
:1030A0001A46D36A13F0F00F18BF916B03F4704304
:1030B000B3F5405FF5D890F820301B0443F000438F
:1030C00043F02C03364A5363D36A13F0F00F18BF52
:1030D000916B03F47043B3F5405FF5D8304A11E0CB
:1030E000C37F44EA034343F010435363D36A13F0AE
:1030F000F00F18BF916B03F47043B3F5405FF5D840
:10310000013DADB22BB2012BEADC254B1968C27F21
:1031100044EA024242F0C0525A631A46D36A13F09C
:10312000805F04D113F0F00FF8D0936BF6E71C4BDF
:103130004FF08052DA621960DB6A13F0F00F05D0AD
:10314000174B9A6BDA6A12F0F00FFAD10E4B1B781C
:10315000C3B113F0010F03D00E4B1A68134B1A6062
:10316000094B1B7813F0020F03D00A4B5A68104B1F
:103170001A60054B1B7813F0040F03D0054B9A68B7
:103180000C4B1A60F0BC70478498FF1F80E100E090
:103190006C98FF1F7898FF1F84E100E088E100E051
:1031A00000C0024001401F0000001F8000E100E05D
:1031B00004E100E008E100E0F0B4BDF81040C6888A
:1031C00037B28F4240F32781B0F90850954240F35F
:1031D0002281CF18013F35B2AF42A4BFC1EB060335
:1031E0001BB28E4D2D78002D28D072B68B4D2D78C8
:1031F00015F0010F07D08A4D2F688A4E36683E4081
:10320000894F3E602E60854D2D7815F0020F07D056
:10321000864D2F68834E76683E40834F7E602E60D9
:103220007E4D2D7815F0040F07D0814D2F687D4E0F
:10323000B6683E407C4FBE602E6062B67D4DED6844
:10324000B5F1384F0AD07B4D7B4E2E604FF038469B
:10325000EE604FF078462E61784E2E601FFA81FCAA
:103260009DB20CF1FF372F44BFB292B290F82030DC
:103270001B0443F0004343F02A036E494B63CB6ABF
:1032800013F0F00F18BF8E6B03F47043B3F5405F7B
:10329000F5D8C17F4CEA014141F01041654B5963BB
:1032A0001946CB6A13F0F00F18BF8E6B03F470430E
:1032B000B3F5405FF5D8C17F47EA014141F01041C5
:1032C0005C4B59631946CB6A13F0F00F18BF8E6B35
:1032D00003F47043B3F5405FF5D890F820301B0439
:1032E00043F0004343F02B0352494B63CB6A13F086
:1032F000F00F18BF8E6B03F47043B3F5405FF5D841
:10330000C17F42EA014141F010414A4B59631946DD
:10331000CB6A13F0F00F18BF8E6B03F47043B3F554
:10332000405FF5D8C37F42EA034242F01042414B6E
:103330005A631A46D36A13F0F00F18BF916B03F467
:103340007043B3F5405FF5D890F820301B0443F08C
:10335000004343F02C03374A5363D36A13F0F00F52
:1033600018BF916B03F47043B3F5405FF5D8314A51
:1033700011E0C37F44EA034343F010435363D36A2D
:1033800013F0F00F18BF916B03F47043B3F5405F77
:10339000F5D8013DADB22BB2012BEADC254B196803
:1033A000C27F44EA024242F0C0525A631A46D36ACC
:1033B00013F0805F04D113F0F00FF8D0936BF6E7B1
:1033C0001C4B4FF08052DA621960DB6A13F0F00F89
:1033D00005D0184B9A6BDA6A12F0F00FFAD10F4B46
:1033E0001B78C3B113F0010F03D00F4B1A68144BB5
:1033F0001A600A4B1B7813F0020F03D00A4B5A686D
:10340000104B1A60054B1B7813F0040F03D0064BCA
:103410009A680D4B1A60F0BC704700BF8498FF1F7C
:1034200080E100E06C98FF1F7898FF1F84E100E0C6
:1034300088E100E000C0024001401F0000001F8042
:1034400000E100E004E100E008E100E02DE9F00F18
:10345000BDF92070BDF82460C48825B28D4240F3C8
:10346000CF8105890FFA85FC944540F3C98101EBB2
:10347000030808F1FF380FFA84FCE045A4BFC1EB54
:1034800004031BB202EB070C0CF1FF3C2CB2A44569
:10349000A4BFC2EB05052FB2874C2478002C34D092
:1034A00072B6854C247814F0010F0BD0834CD4F8FD
:1034B00000C0834D2D680CEA0505DFF81CC2CCF86E
:1034C000005025607C4C247814F0020F0BD07D4C0A
:1034D000D4F800C07A4D6D680CEA0505DFF8F8C134
:1034E000CCF804502560744C247814F0040F0BD0F1
:1034F000754CD4F800C0724DAD680CEA0505DFF8D4
:10350000D8C1CCF80850256062B6704CE468B4F1BC
:10351000384F0AD06D4C6E4D25604FF03845E56050
:103520004FF0784525616B4D25601FFA81F808F151
:10353000FF3C9C441FFA8CFC94B2611E394489B252
:1035400090F82020120442F0004242F02A025F4D1F
:103550006A639946EA6A12F0F00F18BFAB6B02F487
:103560007042B2F5405FF5D84B46C57F48EA054545
:1035700045F01045554A55631546C846EA6A12F0AB
:10358000F00F18BFAB6B02F47042B2F5405FF5D894
:103590004346C57F4CEA054545F010454B4A556307
:1035A0001546C446EA6A12F0F00F18BFAB6B02F47E
:1035B0007042B2F5405FF5D8634690F820201204BF
:1035C00042F0004242F02B02404D6A63EA6A12F078
:1035D000F00F18BFAB6B02F47042B2F5405FF5D844
:1035E0006346C27F44EA024444F01044374A5463BD
:1035F0001446E26A12F0F00F18BFA56B02F4704295
:10360000B2F5405FF5D8C27F41EA024141F0104176
:103610002E4A51631146CA6A12F0F00F18BF8C6B24
:1036200002F47042B2F5405FF5D890F82020120401
:1036300042F0004242F02C0224494A63CA6A12F066
:10364000F00F18BF8C6B02F47042B2F5405FF5D8F2
:10365000002F40F3B9801D49DFF85CC0DFF868A097
:10366000DFF86090DFF85480DFF870B0A7E0C27F29
:1036700046EA024242F010424A63CA6A12F0F00F70
:1036800018BF8D6B02F47042B2F5405FF5D8013C73
:1036900024B2012CEBD10C68C27F46EA024242F010
:1036A000C0524A63CA6A12F0805F19D112F0F00F5B
:1036B000F8D08A6BF6E700BF8498FF1F80E100E036
:1036C0006C98FF1F84E100E088E100E000C0024048
:1036D00001401F0000001F807898FF1F08E100E0F4
:1036E0004FF08052CA620C60CA6A12F0F00F04D028
:1036F0008A6BCA6A12F0F00FFAD1012F5CDD17F065
:10370000010F59D09CF80020002A47D012F0010F79
:1037100003D03D4A14683D4A14609CF8002012F022
:10372000020F03D0384A5268394C22609CF80020BE
:1037300012F0040F03D0344A9268CBF800209CF8B2
:1037400000205AB372B69CF8002012F0010F08D086
:10375000D8F800402F4A126822402B4C2260C8F84B
:1037600000209CF8002012F0020F08D0D9F8004089
:10377000284A52682240244C6260C9F800209CF814
:10378000002012F0040F08D0DAF80040214A9268B5
:1037900022401D4CA260CAF8002062B6CA68B2F18D
:1037A000384F09D01C4A0A604FF03842CA604FF0C7
:1037B00078420A61194A0A60013F3FB227B1012BE2
:1037C0007FF769AF1C4652E7154B1B78C3B113F066
:1037D000010F03D00C4B1A680C4B1A60104B1B786E
:1037E00013F0020F03D0084B5A68094B1A600C4BB8
:1037F0001B7813F0040F03D0034B9A68094B1A602F
:10380000BDE8F00F704700BF7898FF1F00E100E0AF
:1038100004E100E06C98FF1F01401F0000001F80C2
:103820008498FF1F08E100E000B583B0B0F90630CE
:10383000B0F908200092019100210A46FFF706FE28
:1038400003B05DF804FB00BF10B490F820301B04F7
:1038500043F0004343F036035B4A5363D36A13F0EB
:10386000F00F18BF946B03F47043B3F5405FF5D8C5
:1038700001F00301C174032900F29F80DFE801F029
:1038800002295077504A1168C37F1B0443F000633C
:1038900043F048035363D36A13F0805F04D113F0FD
:1038A000F00FF8D0936BF6E7474B4FF08052DA6297
:1038B0001960DB6A13F0F00F05D0434B9A6BDA6A9C
:1038C00012F0F00FFAD1F023C3804FF4A0730381FC
:1038D00073E03D4A1168C37F1B0443F0006343F06B
:1038E00028035363D36A13F0805F04D113F0F00F01
:1038F000F8D0936BF6E7344B4FF08052DA621960E0
:10390000DB6A13F0F00F05D02F4B9A6BDA6A12F0D6
:10391000F00FFAD14FF4A073C380F02303814CE081
:10392000294A1168C37F1B0443F0006343F08803F6
:103930005363D36A13F0805F04D113F0F00FF8D013
:10394000936BF6E7204B4FF08052DA621960DB6A26
:1039500013F0F00F05D01C4B9A6BDA6A12F0F00FDF
:10396000FAD1F023C3804FF4A073038125E0164AF7
:103970001168C37F1B0443F0006343F0E803536303
:10398000D36A13F0805F04D113F0F00FF8D0936B7B
:10399000F6E70D4B4FF08052DA621960DB6A13F0E4
:1039A000F00F05D0084B9A6BDA6A12F0F00FFAD1DB
:1039B0004FF4A073C380F0230381002343818381EC
:1039C0005DF8044B704700BF00C0024070B505466B
:1039D00090F822300B2B02D0072B40F0AE8195F8E7
:1039E000212002F0FB01082940F0A78195F823105F
:1039F000A1F10D00C0B2012800F29F810B2B05D16F
:103A00006E4B187820F00100187006E0072B04D1E7
:103A10006A4B187840F0010018700C2A05D1674BEA
:103A20001A7822F002021A7006E0082A04D1634BC9
:103A30001A7842F002021A700D2905D15F4B1A78EC
:103A400022F004021A7006E00E2904D15B4B1A78AA
:103A500042F004021A70FEF7F1FF687FA97FFFF7BA
:103A60004FF870B1687FFFF791F80446E877A87FB8
:103A7000FFF78CF8204385F82000287FFF2805D128
:103A80001CE00023EB7785F8203070BD012101F0A8
:103A90004DFA287F012101F017FA052001F08AFA7A
:103AA000287F002101F010FA142001F083FA287F0A
:103AB000012101F009FA962001F07CFA404B1B78B5
:103AC000002B28D072B63E4B1B7813F0010F07D0A5
:103AD0003C4B19683C4A12680A403C490A601A602B
:103AE000374B1B7813F0020F07D0394B1968364A51
:103AF00052680A4035494A601A60314B1B7813F00E
:103B0000040F07D0334B19682F4A92680A402F4997
:103B10008A601A6062B6304BDB68B3F1384F0AD066
:103B20002D4B2E4A1A604FF03842DA604FF078423F
:103B30001A612B4A1A602B48274A0378591ECEB2C5
:103B40004BB3841C437895F8201043EA014343F0BB
:103B500000435363D36A13F0F00F18BF916B03F463
:103B60007043B3F5405FF5D8A01911E014F8013B9C
:103B7000E97F43EA014343F000435363D36A13F000
:103B8000F00F18BF916B03F47043B3F5405FF5D8A5
:103B90008442EBD1D1E7104A116895F820301B041C
:103BA00043F0006343F011035363D36A13F0805F63
:103BB0001AD113F0F00FF8D0936BF6E7C99AFF1FF4
:103BC0008498FF1F80E100E06C98FF1F7898FF1F2A
:103BD00084E100E088E100E000C0024001401F00F5
:103BE00000001F8098CB0000544B4FF08052DA62E7
:103BF0001960DB6A13F0F00F05D0504B9A6BDA6A4C
:103C000012F0F00FFAD14E4B1B78C3B113F0010F35
:103C100003D04C4B1A684C4B1A60494B1B7813F07D
:103C2000020F03D0474B5A68484B1A60444B1B782D
:103C300013F0040F03D0434B9A68454B1A60782069
:103C400001F0B8F93E4B1B78002B28D072B63C4BE4
:103C50001B7813F0010F07D03E4B19683E4A1268DB
:103C60000A4038490A601A60354B1B7813F0020F7E
:103C700007D03A4B1968384A52680A4031494A60BD
:103C80001A602F4B1B7813F0040F07D0344B1968C0
:103C9000314A92680A402B498A601A6062B6274B03
:103CA000DB68B3F1384F0AD0244B2E4A1A604FF02C
:103CB0003842DA604FF078421A612B4A1A601F4A84
:103CC000116895F820301B0443F0006343F029038A
:103CD0005363D36A13F0805F04D113F0F00FF8D070
:103CE000936BF6E7154B4FF08052DA621960DB6A8E
:103CF00013F0F00F05D0114B9A6BDA6A12F0F00F47
:103D0000FAD10F4B1B78C3B113F0010F03D00D4B49
:103D10001A680D4B1A600A4B1B7813F0020F03D080
:103D2000084B5A68094B1A60054B1B7813F0040FB7
:103D300003D0044B9A68064B1A6070BD00C0024065
:103D40008498FF1F7898FF1F00E100E004E100E085
:103D500008E100E080E100E06C98FF1F84E100E0F2
:103D600088E100E001401F0000001F802DE9F04FB6
:103D700089B0019005921E469DF84870BDF84C90A0
:103D80009BB2C3F10105ADB2C3EBC3335B009BB281
:103D90000493002E40F39F804FF0000807F00403C7
:103DA000DBB2069389B203914A1C079215F4004FC7
:103DB00008D1013E36B2049A931C9BB29AB2049287
:103DC0001D44ADB21FFA88F4631C9BB2029305EB4D
:103DD00044050335ADB2069BD3B1059A1FFA82FAAA
:103DE0001FFA86FB079921440BEB0A02019809B2DE
:103DF00012B24B46FEF772FF039959440AF1010AC9
:103E000004EB0A02019809B212B24B46FEF766FFB4
:103E100017F0020F1AD0059B1FFA83FA1FFA86FBD0
:103E200007992144CBEB0A02019809B212B24B4622
:103E3000FEF754FF039959440AF1FF3AC4EB0A0212
:103E4000019809B212B24B46FEF748FF17F0080F6F
:103E50001BD01FFA86FB059A1FFA82FA039BCBEB55
:103E600003010AF101022244019809B212B24B4641
:103E7000FEF734FF039A511E091B0BEB0A0201984F
:103E800009B212B24B46FEF729FF17F0010F1BD003
:103E90001FFA86FA059B1FFA83FB039ACAEB0201FD
:103EA0000BF1FF32121B019809B212B24B46FEF71A
:103EB00015FF039A531E191BCAEB0B02019809B296
:103EC00012B24B46FEF70AFF08F10108029A13B23C
:103ED0009E423FF76BAF09B0BDE8F08F2DE9F04F80
:103EE0008DB0049009921E469DF858000690BDF9C9
:103EF0005C200A92BDF860300593B3B2C3F10104AF
:103F0000A4B2C3EBC3335B009BB20393002E40F318
:103F10008280002500F00100079089B208914A1CB8
:103F20000B922F4614F4004F08D1013E36B203988D
:103F3000831C9BB29AB203921C44A4B2BDB26B1C08
:103F40009BB202934FEA45081FFA88F808F1030371
:103F50001C44A4B2079B4BB309981FFA80FB1FFABD
:103F600086F90A9A1FFA82FA0B992944C9EB0B02C7
:103F70000AF1010303EB490305980090049809B284
:103F800012B21BB2FEF7D0FF089949440BF1FF3B78
:103F9000C5EB0B020AF1030A08EB0A03059800902F
:103FA000049809B212B21BB2FEF7BEFF069A12F0D5
:103FB000020F2BD0099B1FFA83FB1FFA86F90A9880
:103FC0001FFA80FA089A511E491BC9EB0B020AF12D
:103FD000010303EB490305980090049809B212B25B
:103FE0001BB2FEF7A1FF089AC9EB02010BF1FF3BE0
:103FF000C5EB0B020AF1030A08EB0A0305980090CF
:10400000049809B212B21BB2FEF78EFF0137029A72
:1040100013B29E4286DC0DB0BDE8F08F2DE9F04F63
:1040200089B0054607919246BDF94C70BDF85040E5
:1040300089B20391BEB28846B044C6EBC6394FEA96
:1040400049091FFA89F9CDF810909BB20593CB4628
:104050009B440FFA88F80FFA8BFB009441465B46AD
:10406000FFF7AAF81FFA8AFABDF848900AEB09038D
:10407000013B9BB206930094284641461AB25B4628
:10408000FFF79AF8B244049B99440FFA8AFA0FFAA0
:1040900089F900942846079952464B46FEF744FF9B
:1040A000DDF80CB005998B441FFA8BFB0BF1FF3147
:1040B0000094284609B252464B46FEF735FF0123CD
:1040C000009301942846414652463B46FFF74EFE78
:1040D000F3439B440FFA8BFB022300930194284681
:1040E000594652463B46FFF741FE069B9E1B36B2A1
:1040F0000423009301942846594632463B46FFF775
:1041000035FE0823009301942846414632463B463B
:10411000FFF72CFE09B0BDE8F08F00BF2DE9F04F8E
:1041200087B080460592BDF940B0BDF94450BDF856
:1041300048601FFA81F9ACB209EB0407C4EBC43143
:10414000490089B204911FFA83FA3FB20B465344E7
:10415000CDF800B0019639461BB2FFF777F9059B01
:1041600023440BF1FF3B049A93440AF1FF3AD144F4
:10417000C4EB09010FFA83FA012300930FFA8BF4C1
:1041800001940296404609B252462B46FFF7A6FE1E
:1041900002230093019402964046394652462B462C
:1041A000FFF79CFE07B0BDE8F08F00BF2DE9F04F90
:1041B0008FB005468B460392BDF860A0BDF864C081
:1041C0009DF86860B0F906208A4240F3E282B0F9B7
:1041D00008200398824240F3DC8206EB460201EBA2
:1041E0004202012A00F1D58200EBC602012A00F149
:1041F000D082E24540F05681012E18D003EB8303B4
:10420000374606EB46010A9172000B92B000099006
:1042100006EB8601089108220592002004900121F6
:1042200006919F4A9A180D92B146564635E103EB26
:104230008303039A96B206F1080292B20392012711
:10424000974A9A180492B946574680E00498815CD0
:1042500019EA010F18BF43F001035B00DBB2013222
:10426000052AF3D15C08002B67D01F2C02D01E2C2E
:1042700017D10AE000972846594632B20523FEF7C7
:104280009BFF5AE01E2C10D101E04FF0000A0AEB10
:104290000B010097284609B232B20423FEF78CFFC7
:1042A0004BE04FF0000A0FFA86F804F01C031C2BB9
:1042B00011D11FFA8AFA0AEB0B010097284609B2BE
:1042C00042460323FEF778FF2401E4B20AF1040A10
:1042D0001FFA8AFA2FE004F01803182B11D11FFAE5
:1042E0008AFA0AEB0B010097284609B242460223DC
:1042F000FEF762FFE400E4B20AF1030A1FFA8AFA49
:1043000019E014F0100F10D01FFA8AFA0AEB0B0113
:10431000284609B242463B46FEF7E0FCA400E4B260
:104320000AF1020A1FFA8AFA05E06400E4B20AF10F
:10433000010A1FFA8AFA002CA4D14FEA49095FFA50
:1043400089F90136B6B203998E4200F0228200222A
:1043500013467BE70D98815C0698084218BF43F02E
:1043600001035B00DBB20132052AF3D15C08002BAC
:1043700000F084801F2C02D01E2C23D110E0049961
:10438000039B01FB0732CDF8009001962846594661
:1043900012B2089BFFF75AF870E01E2C1FD101E003
:1043A0004FF0000A0AFB07B10498039B00FB073299
:1043B000CDF800900196284609B212B2099BFFF78A
:1043C00045F85BE00498039900FB07134FF0000ADF
:1043D0001BB207930FFA89F80B9A12B20C9204F0F1
:1043E0001C031C2B13D11FFA8AFA07FB0AB1CDF864
:1043F00000800196284609B2079A0A9BFFF726F823
:104400002401E4B20AF1040A1FFA8AFA34E004F043
:104410001803182B13D11FFA8AFA0AFB07B1CDF83B
:1044200000800196284609B2079A0C9BFFF70EF808
:10443000E400E4B20AF1030A1FFA8AFA1CE014F05D
:10444000100F13D01FFA8AFA0AFB07B1CDF80080CB
:104450000196284609B2079A4346FEF7F7FFA400E3
:10446000E4B20AF1020A1FFA8AFA05E06400E4B233
:104470000AF1010A1FFA8AFA002C8ED1069843002D
:10448000DBB2069304994B1C9BB20493059A531E0E
:104490009BB20593002B00F07C810022134659E764
:1044A0009CC600009B4A1278002A28D072B6994A0E
:1044B000127812F0010F07D0974A106897490968DF
:1044C0000140974801601160924A127812F0020F81
:1044D00007D0944A1068914949680140904841606A
:1044E00011608C4A127812F0040F07D08E4A1068BF
:1044F0008A49896801408A488160116062B68B4AA6
:10450000D268B2F1384F0AD0884A894911604FF019
:104510003841D1604FF078411161864911601FFA2E
:104520008BF406EB460704EB4707013FBFB2039845
:1045300081B201EBC600013880B295F82020120448
:1045400042F0004242F02A02DFF8E081C8F834204D
:104550004246D2F82C8018F0F00F18BFD2F83890ED
:1045600008F47048B8F5405FF3D8EA7F44EA0244A3
:1045700044F010446D4A5463D46A14F0F00F18BF2D
:10458000D2F8388004F47044B4F5405FF4D8EC7F7E
:1045900047EA044444F01044644A5463D46A14F073
:1045A000F00F18BF976B04F47044B4F5405FF5D872
:1045B00095F82020120442F0004242F02B025B4C9E
:1045C00062632246D46A14F0F00F18BF976B04F4AC
:1045D0007044B4F5405FF5D8EA7F41EA024141F00A
:1045E0001041524A5163D16A11F0F00F18BF946B19
:1045F00001F47041B1F5405FF5D8E97F40EA01412F
:1046000041F01041494A5163D16A11F0F00F18BFCF
:10461000906B01F47041B1F5405FF5D895F820201A
:10462000120442F0004242F02C0240494A630A461A
:10463000D16A11F0F00F18BF906B01F47041B1F521
:10464000405FF5D803EB8303082104914FF0010884
:10465000394A1344354A9B4645E01BF8070008EAEF
:104660000000002814BF504660464946EB7F40EAF0
:10467000034343F010435363D36A13F0F00F18BFA2
:10468000946B03F47043B3F5405FF5D80131CBB2BE
:104690009E42EBD80137052FDFD10020EB7F4CEA9B
:1046A000034343F010435363D36A13F0F00F18BF72
:1046B000916B03F47043B3F5405FF5D80130C3B29A
:1046C0009E42EBD8039B01330393DBB29E4201D998
:1046D0000027C2E74FEA48085FFA88F80498431EAB
:1046E0009BB204932BB1002EF4D000210391894694
:1046F000EEE70E4B196895F82020120442F0006294
:104700005A63DA6A12F0805F18D112F0F00FF8D015
:104710009A6BF6E78498FF1F80E100E06C98FF1F1A
:104720007898FF1F84E100E088E100E000C00240CB
:1047300001401F0000001F809CC60000164B4FF078
:104740008052DA621960DB6A13F0F00F05D0124B69
:104750009A6BDA6A12F0F00FFAD1104B1B78C3B1E2
:1047600013F0010F03D00E4B1A680E4B1A600B4B5F
:104770001B7813F0020F03D0094B5A680A4B1A60DA
:10478000064B1B7813F0040F03D0054B9A68074BB8
:104790001A600FB0BDE8F08F00C002408498FF1F80
:1047A0007898FF1F00E100E004E100E008E100E08C
:1047B0002DE9F04F85B0804602920393DDF838A0D2
:1047C0000E46002939D001274FF0000B039B5D1CDA
:1047D000029C00230FFA8AF900E00135013C07FA38
:1047E00004F2164203D00133002CF6D10EE0002B68
:1047F00020DD691EC91AB8F80E200092404609B2A1
:104800004A461BB2FEF7D8FC5B4613E0002B0ADDDC
:10481000E91AB8F80E200092404609B20FFA8AF25F
:104820001BB2FEF7C9FC0AF1010A0F9B013B0F9373
:10483000CCD102E0002CD0D1F5E705B0BDE8F08F77
:104840002DE9F04F87B00746D0F818B09BF80E302E
:104850008B4209D89BF80F20914205D8CB1A9BF8C0
:10486000121001FB03F113E09BF810209142C0F0FD
:10487000FF809BF81100814200F2FA809BF80F0044
:1048800001300144CB1A9A1A9BF8121001FB02F175
:10489000DBF800009BF81220FEF7D2F9DBF80830B5
:1048A00003EB0008404600210322FEF7C9F9002867
:1048B00040F0DE809BF81390404603214A46FEF705
:1048C000BFF9044609F103099BF8146040464946C4
:1048D0003246FEF7B5F90546B1449BF815604046EF
:1048E00049463246FEF7ACF9731E012202FA03F381
:1048F000184204D002FA06F3C31A049300E00490AD
:10490000049A0392B1449BF81660404649463246E9
:10491000FEF796F9731E012202FA03F3184204D03F
:1049200002FA06F3C31A059300E00590B1449BF820
:104930001760404649463246FEF782F9B7F90A3019
:10494000002BBCBF00237B817B89039A02FA83FA88
:10495000BAF1000F04DA049A9B1A7B814FF0000A27
:104960000AEB0402B7F906309A4210DD3B7D002BBA
:104970007ED0039B002BAEBF0023049A53427B8161
:104980009BF81820BB891344BB814FF0000ABB89F8
:10499000B7F908101AB291426ADD7A891044788119
:1049A0009BF8192002FA83F35B1B059AC2EB030BF9
:1049B0000495002D5CD0B1443B465F469B4609F10F
:1049C00001064FEAD90318F803206FEA090303F040
:1049D000070342FA03F313F0010F20D10025C5EBC2
:1049E0000409B9F1200F28BF4FF020094046314695
:1049F0004A46FEF725F901460097012301935846E0
:104A00004A4605EB0A03FFF7D3FE4E444D44AC4241
:104A1000E5D80137049A013A0492B14625E04046B0
:104A200031460322FEF70CF90230039009F1040924
:104A30000025661B202E28BF2026404649463246C8
:104A4000FEF7FEF801460097039B01935846324655
:104A500005EB0A03FFF7ACFEB1443544AC42E8D89D
:104A6000039A1744049B9B1A0493049A002AA6D124
:104A700007B0BDE8F08F00BF10B584B004460B4608
:104A800082693AB10A2902D10023438134E0FFF759
:104A9000D7FE31E00A2907D1827C838903EBC20368
:104AA00083810023438127E00D2925D0B0F90A1026
:104AB000B0F90C20C0890090208A0190A07C02905F
:104AC0002046FFF773FBA37C03EB4301628902EBF3
:104AD000410292B26281217D71B112B2B4F9061025
:104AE000A3EB830001EB40018A4205DDA28902EBC2
:104AF000C303A38100236381012004B010BD00BF64
:104B000010B4002906DBC3881CB2A14203DB591E86
:104B100009B200E000214181002A06DB038919B2B5
:104B20008A4203DB5A1E12B200E0002282815DF845
:104B3000044B7047002908BF01218174704700BFF2
:104B40000182C181704700BF10B5154B1C681C6005
:104B500014F4805F05D0134BDB6813B1114BDB6895
:104B6000984714F4005F05D00E4B1B6913B10D4B31
:104B70001B69984714F0200F05D00A4B1B6E13B128
:104B8000084B1B6E984714F0100F07D0054BD3F855
:104B900084301BB1034BD3F88430984710BD00BF5D
:104BA000A09004401099FF1F10B5274B1C681C6093
:104BB00014F4803F05D0254B1B6813B1234B1B68B1
:104BC000984714F4003F05D0204B5B6813B11F4B8E
:104BD0005B68984714F0010F05D01C4B1B6C13B198
:104BE0001A4B1B6C984714F0020F05D0174B5B6CE7
:104BF00013B1164B5B6C984714F0080F05D0134B9C
:104C00009B6C13B1114B9B6C984714F0040F05D0AB
:104C10000E4BDB6C13B10D4BDB6C984714F4002F7B
:104C200005D00A4B5B6E13B1084B5B6E984714F4CA
:104C3000802F07D0054BD3F880301BB1034BD3F83E
:104C40008030984710BD00BFA0A004401099FF1FFE
:104C500010B5384B1C681C6014F0080F05D0364B9B
:104C60005B6A13B1344B5B6A984714F0100F05D0A0
:104C7000314B9B6A13B1304B9B6A984714F0400F3D
:104C800005D02D4BDB6A13B12B4BDB6A984714F030
:104C9000800F05D0284B1B6B13B1274B1B6B98471C
:104CA00014F0200F05D0244B5B6B13B1224B5B6BD0
:104CB000984714F0010F05D01F4BDB6B13B11E4B4F
:104CC000DB6B984714F0020F05D01B4B9B6D13B1A3
:104CD000194B9B6D984714F0040F05D0164BDB6DF4
:104CE00013B1154BDB6D984714F4007F05D0124BC0
:104CF000DB6E13B1104BDB6E984714F4807F05D048
:104D00000D4B1B6F13B10C4B1B6F984714F4806F46
:104D100005D0094B5B6F13B1074B5B6F984714F4D9
:104D2000006F05D0044B9B6F13B1034B9B6F9847EB
:104D300010BD00BFA0B004401099FF1F10B5264B56
:104D40001C681C6014F0010F05D0244B9B6813B144
:104D5000224B9B68984714F0800F05D01F4B5B696E
:104D600013B11E4B5B69984714F0100F05D01B4B15
:104D70009B6913B1194B9B69984714F0040F05D038
:104D8000164BDB6913B1154BDB69984714F0080F1C
:104D900005D0124B1B6A13B1104B1B6A984714F0D5
:104DA000020F05D00D4B9B6B13B10C4B9B6B9847BF
:104DB00014F0200F05D0094B1B6D13B1074B1B6D71
:104DC000984714F0400F05D0044B5B6D13B1034BB3
:104DD0005B6D984710BD00BFA0C004401099FF1F35
:104DE00010B50B4B1C681C6014F0020F05D0094B6A
:104DF0009B6E13B1074B9B6E984714F0010F05D0C3
:104E0000044BDB6F13B1034BDB6F984710BD00BF42
:104E1000A0D004401099FF1F30B4212831D8042AB3
:104E20002FD8DFE802F00709050B03000B2406E08A
:104E30000A2404E0082402E00C2400E00924124BB8
:104E400003EBC0035A68114B114DC3F89C51114D2F
:104E5000C3F8A051104DC3F8A451104DC3F8A85188
:104E60000F4DC3F8AC5172B6136823F4702313606E
:104E70000C4D45F8201043F0807343EA044414605D
:104E800062B630BC704700BF10CC00000082FF1F2C
:104E9000494B0000A94B0000514C00003D4D000063
:104EA000E14D00001099FF1F044B00221A600449D5
:104EB0000A60044A106010221A60704714D0034040
:104EC00004D0034000D0034021281ED80F4B53F8D4
:104ED000303093F8802212F0FF0F08D019B1012270
:104EE00083F880207047012283F800217047074B28
:104EF00003EBC000436821B11A6842F003021A6054
:104F000070471A6822F002021A60704710CC000045
:104F1000212806D8044B53F8303093F80002C0B271
:104F200070470020704700BF10CC000021281CD81B
:104F30000E4B03EBC0035B68012908D10B4A52F802
:104F4000302082F880124FF4A2721A607047074A2C
:104F500052F83020002082F8800219B94FF4807294
:104F60001A60704740F203121A60704710CC0000BC
:104F700072B60C4B1B680C4A12680C49096862B681
:104F800011F0806F02D0322B88BF0132C3F5BB33E2
:104F9000FF330749A1FB03039B094FF47A7000FB21
:104FA0000230704718E000E09899FF1F04ED00E020
:104FB000ABAAAAAA38B50546FFF7DAFF044625B919
:104FC00038BD013D0AD004F57A74FFF7D1FF001B0C
:104FD000B0F57A7FF5D201F007F9F6E738BD00BFEA
:104FE00010B5254B4FF400021A604FF080721A6022
:104FF0004FF000721A604FF080621A604FF000624A
:105000001A6000201D4B18604BF6FF7104331960C5
:1050100028231B4A136008321360083213600832D9
:1050200013600832136008321360083213600832CC
:1050300013600922134C226004F58054043420606C
:10504000043421600434236008342360143C22605B
:1050500004F5FE24043420600B4801600B490B600A
:1050600008310B600A4B1A6001F07AF9FA20FFF759
:10507000A1FF00F095FC10BD08E100E004800340B2
:105080000C8003400080034008800B400C800B40E4
:1050900000800B4030B40E4B1B7843F002020D4CE5
:1050A00004EBC20460600C48007800280CBF882420
:1050B000C82444EA0141074D45F8321080F0010050
:1050C000054A107083F00103014A137030BC704729
:1050D000189AFF1F0080FF1FA19AFF1F10B4431EE4
:1050E000052B11D872B60A4A52F8230050B1426813
:1050F000074941F82320074A32F813400188611A12
:1051000022F8131062B600E000205DF8044B7047EF
:10511000009AFF1FD89CFF1F013805280DD872B6D2
:10512000074B53F820302BB1002001305B68002B77
:10513000FBD100E0002062B670470020704700BF3E
:105140005C9AFF1F38B572B601231B491B4C5A18D5
:1051500012F8012C12F0080F24D09A0054F83250A3
:105160006DB9164B03EBC20108304860144943F88F
:105170003210144B1A78013A1A7062B638BD42F0F8
:10518000010254F832506DB90C4B03EBC2010830E8
:1051900048600D4943F832100A4B1A78013A1A70E8
:1051A00062B638BD0133072BD1D162B60022054B60
:1051B0001A7000F067FD38BDB0CD00000080FF1F01
:1051C00088004000969AFF1FC800400010B4431E9C
:1051D000052B37D8400140F010001C4A104472B62D
:1051E0001B4AD25C032A09D8DFE802F019021B052A
:1051F0000830022216E00830042213E0154A52F863
:1052000023201AB9134A42F8231003E0124A52F835
:1052100023205160104A42F8231062B612E00322A4
:1052200000E005220A4CE25401F10803436000F05B
:105230000803002B0CBF8823C8230A8843EA0243D3
:10524000036062B65DF8044B704700BF0080FF1F2B
:10525000B899FF1F5C9AFF1F749AFF1F2DE9F84F42
:10526000A84CDFF8F092DFF8F0A2DFF8F0B2257872
:10527000EDB215F0040F1DD0A34B1B7813F0FF0FF8
:1052800016D0A24B1B7803F0FF022BB1531EDBB2EA
:105290009E4A137003B900BE9D4B1B7803F0FF02BA
:1052A00033B1531EDBB29A4A13700BB900F02AFED9
:1052B0000423237015F0080F00F0058399F80030DF
:1052C000DBB21D0940F03C82924D9E0805EBC603FF
:1052D0005F6855F83630C3F38303013B0C2B00F2B3
:1052E0002B82DFE813F0D301D3012902290229021E
:1052F00029022902290203022902290229020D009A
:10530000854A3B68136079685160844A45F83620C5
:10531000002283490A607F490A618A610121814A2A
:1053200011709BB240F28162934218D8B3F5D06FEE
:1053300038D2B3F5817F00F0268106D8802B00F0AB
:10534000D280822B00F0D5806EE140F2023293428F
:1053500000F02E81B3F5A06F00F06A8164E140F6A1
:105360002122934200F064810CD8B3F5106F1FD056
:1053700040F62112934200F08581B3F5086F00F0EA
:10538000AC8051E142F22122934200F0448142F28A
:105390002132934200F04C8142F22102934240F0CC
:1053A00043816FE1604B5D68002D40F016812EE176
:1053B000594B9A78544B1A70564D05F1C0062B6A1A
:1053C00013F0800F03D0686A083800F05BFC0835E2
:1053D000B542F4D1DFF8888100263746534AB058E9
:1053E00028B1456800F04EFC0DB12846F9E70023CE
:1053F0004E4973504E4AB3504E4BF05828B1456851
:1054000000F040FC0DB12846F9E7002349497350EC
:10541000494AB35028F8023F484BFB5C023B032B40
:105420000AD8DFE803F0020602060022434BDA55F1
:1054300002E00122414BDA5501370436182ECDD156
:1054400000223F4B1A7001253E4EDFF81881314F84
:1054500005EB080313F8013C06F8043B13F0080FB2
:105460002DD000F0EFFB48B1A90007EB451200F189
:1054700008035360344A47F8312007E0AB000022AC
:1054800047F833202E4B1A7801321A7000F0DAFBFD
:1054900058B1AB0043F0010307EBC30100F1080270
:1054A0004A601E4A47F8332009E0AB0043F001038D
:1054B000002247F83320224B1A7801321A70AA00D2
:1054C00042F00201002347F8313042F0030247F86E
:1054D000323001355E45BBD136E20B4B1B781B4D9C
:1054E0002B700127A9E0194D00232B706B70022748
:1054F000A3E0094B9B88062B36D90F22144B1A7058
:10550000C0E000BF80200740A09AFF1F199AFF1F2C
:10551000B89AFF1F0080FF1F8C9AFF1FC800400031
:105520009C99FF1FA19AFF1FB8CD0000009AFF1F92
:10553000A099FF1F5C9AFF1F749AFF1FB899FF1F65
:10554000969AFF1FC420074088004000989AFF1FCA
:10555000C02007409020074094200740DC200740EF
:10556000D69CFF1FB0CD0000A04A002111705170E1
:105570009F4A12F8233013F0020F5CD09B4D012399
:105580002B70022759E09B4B9B8803F07F03062B6F
:1055900002DC984A52881AB10F22954B1A7071E0BA
:1055A000934A12F8231021F0020102F82310CBE1F4
:1055B000904B9B8803F07F03062B02DC8D4A5288B8
:1055C0001AB10F228A4B1A705CE0894A12F8231034
:1055D00041F0020102F82310B6E1864B5E889F88F5
:1055E000854BA3F10C02114633F80C0CB04209D1E3
:1055F00033F80A0CB84205D1360A032E0CBF2F78B7
:1056000017891AE00D690C330C32002DEBD10F22F3
:10561000774B1A7036E0794B1A68794B1A60754BE4
:105620009A78784B1A708FE10F22714B1A7029E02B
:1056300000273D4601E002276C4D6E4BDB889F4200
:1056400028BF1F46402F34BF3E46402628463146DD
:10565000FFF720FD3544BF1B03D13F2E00F27981B7
:1056600010E0402F34BF3E46402628463146FFF723
:1056700011FD3544BF1B01D13F2E03D9624B1D6084
:10568000624B1F8001238AF8003055E0594B1A887D
:1056900042F221039A4214D15D4BD81D3A4612F8CA
:1056A000011B03F8011F8342F9D10737594B1B68CF
:1056B000862B02D10F22584B1A7000200146FFF7AB
:1056C000E9FC4C4B1A68554B9A420BD1494B5A682E
:1056D000534B9A4206D13A78524B1A700020014639
:1056E000FFF7D8FC504B45F8363025E0464B1E6896
:1056F000BEB1464FB7F80080B8F1400F34BF454601
:10570000402530462946FFF7C5FCC5EB08039BB290
:105710003B800BB9402D01D1354400E000253A4BC8
:105720001D60344B1B88B3F5A06F05D1314B0022AF
:105730005A709B783D490B7001238AF80030BFE016
:105740003B4E9F0806EBC708D8F80420A2F10800DA
:10575000013DEDB213F0080F70D000F093FA354B15
:1057600053F825304BB35A68324941F8252003F1EC
:105770000802C8F80420304A525D032A12D8DFE834
:1057800002F002060A0E03212B4A51550AE00221BB
:10579000294A515506E00521274A515502E00421C6
:1057A000254A515518F0080F0CBF8822C8221B88C3
:1057B00042EA034346F8373082E01F4B5B5D032B20
:1057C0000BD8DFE803F07D7D020600221A4B5A5504
:1057D00076E00122184B5A5572E018F0080F0CBF02
:1057E00002220322144B5A556AE000BF989AFF1F09
:1057F000C02007408C9AFF1FC4CD00009899FF1F5E
:10580000F89CFF1FC89AFF1F9C99FF1F949AFF1FC7
:10581000EF9CFF1FF09CFF1F199AFF1F2109000238
:1058200002000100A39AFF1FC80040009820074013
:105830000080FF1F5C9AFF1FB899FF1F56F8373092
:105840001B0C22F8083C9BB3002322F8063C42F8CC
:10585000043C434B53F825301BB9414B43F825001A
:1058600003E0404B53F8253058603E4B43F8250089
:105870003D4B33F8151032F8082C0A4423F8152054
:1058800000F0E0F960B100F10803C8F8043018F046
:10589000080F364B364A08BF134646F837300FE03C
:1058A000002346F83730334B1A7801321A7007E07C
:1058B00018F0080F2D4B2E4A08BF134646F8373014
:1058C00008232370D3E415F0010F22D02A490223C4
:1058D0000B700022294B1A70294B25481860294C5F
:1058E0005C6098602848D8601A619A610D20274B47
:1058F0001870FF23264803700838037018300270B0
:10590000244A13709F22244B1A7001230B70BDE8A8
:10591000F88F15F0800F05D00D221C4B1A708022D5
:10592000403B1A7015F0020F06D0194B1A78D2B20C
:105930001A700222083B1A7015F0100F0ED01022B8
:10594000164B1A70BDE8F88F00200146FFF7A2FB46
:1059500098E628460021FFF79DFB93E6BDE8F88F07
:10596000009AFF1FA099FF1FD89CFF1FC80040008E
:1059700088004000969AFF1F94200740189AFF1F46
:105980000080FF1FC099FF1F1C9AFF1FC020074007
:10599000882007408C200740842007408020074053
:1059A00008B501F06DFE00231B491A465A50C8186D
:1059B00042600833C82BF9D1184B1A6842F4802290
:1059C0001A60154BC3F30721154A1170C3F3074141
:1059D000143211701B0E04321370FF23343A13700B
:1059E00008321370783A1370012384321370002147
:1059F0006C3211707C3A137070220A4B1A704FF49B
:105A00000072A3F241331A60102203F1C04303F580
:105A1000C8231A7008BD00BF0080FF1F34800440F7
:105A20009C20074049E400E0F8B51D4B1B7813F0BB
:105A3000FF0F2ED044F2D95406251A4E184F28468F
:105A4000FFF76AFB022803D800F0FCF8034680B990
:105A5000013C01D033782BB10122124B1A704FF068
:105A6000FF30F8BD00F0C0FB3B7813F0FF0FE6D12C
:105A700012E000250B4A15700B4C07CC9860D960DA
:105A80001A610C221A8006201946FFF79FFB284650
:105A9000F8BD4FF0FF30F8BD4FF0FF30F8BD00BF4C
:105AA000A09AFF1FA29AFF1FE49CFF1F1F2806D881
:105AB0000A280BD00B2814BF00202B2070477F280A
:105AC00006D8044B184410F8200C70472820704763
:105AD0000020704750CD0000F8B51E4B1B7813F026
