:1000000000800020BD01000061470000254700007E
:100010002547000025470000254700002547000030
:1000200025470000254700002547000061470000E4
:1000300061470000254700006147000015470000A8
:100040006147000061470000614700006147000010
:100050006147000061470000614700006147000000
:1000600061470000614700006147000061470000F0
:1000700061470000614700006147000061470000E0
:1000800061470000614700006147000061470000D0
:1000900061470000614700006147000061470000C0
:1000A00061470000614700006147000061470000B0
:1000B00061470000614700006147000061470000A0
:1000C0006147000061470000614700006147000090
:1000D0006147000061470000614700006147000080
:1000E0006147000061470000614700006147000070
:1000F000614700001D4D00006147000019530000DA
:100100006147000039580000614700006147000066
:10011000614700006147000061470000614700003F
:10012000614700006147000061470000614700002F
:10013000614700006147000061470000614700001F
:10014000614700006147000061470000614700000F
:1001500061470000614700006147000061470000FF
:1001600061470000813500006147000061470000E1
:1001700061470000614700006147000061470000DF
:1001800061470000614700006147000061470000CF
:1001900061470000614700006147000061470000BF
:1001A00061470000614700006147000061470000AF
:1001B000614700006147000061470000574B4CF267
:1001C000205210B51A804DF628121A8000BF00BFC9
:1001D00004F0CAFA524B4FF010621A60514A9A600A
:1001E000514ADA60A3F53043203B1A6812F480725A
:1001F00004D14E490A604FF4A8521A604C4B1A7849
:10020000110703D51A7842F008021A70494B4A4C7C
:100210004A482A221A704A4A00239918A14203D256
:10022000195899500433F8E7464B474900228B424E
:1002300002D243F8042BFAE74448454900235A58B0
:100240001A500433B3F5DE7FF9D1424B424A802184
:1002500003F8011B9342FBD1404B3C4A1A60404BD0
:100260000A221A70A3F5805324225A70A0221A7011
:100270009A799207FCD59A79D406FCD4394A9379B5
:1002800003F00C03082B374BF9D103221A714022DB
:100290005A719A799006FCD5324A9179314B4906C8
:1002A000FBD5314A314911600221516020221A7078
:1002B0009A7902F00C020C2AFAD12D4B2D4A1A60C1
:1002C0002D4B2E4A1A6000225A60072243F8042C54
:1002D0002B4AC3F80C2D62B603F014F8134B1B68BD
:1002E000DA0705D5274802F07FFF274B274A1A6017
:1002F000274B1B785B0609D5234C244A236893427D
:1003000004D1204802F070FF0023236006F070F94A
:1003100004F030FA04F076F8FEE700BF0E20054046
:1003200030800440823F04000100002B14D00340C1
:1003300002D0074000E007407C97FF1F10B3000089
:10034000708CFF1F7C97FF1F0C9CFF1F0082FF1FFC
:100350000000000000E400E05FE400E008ED00E0E1
:100360000050064000400640448004400000030165
:1003700004800440C010050014E000E0FF76010096
:100380000000202001C550571CE00340A5C3945A2B
:1003900000F00740FFFFFFFFFFFFFFFFFFFFFFFF32
:1003A000FFFFFFFFFFFFFFFFFFFFFFFFFFFFFFFF5D
:1003B000FFFFFFFFFFFFFFFFFFFFFFFFFFFFFFFF4D
:1003C000FFFFFFFFFFFFFFFFFFFFFFFFFFFFFFFF3D
:1003D000FFFFFFFFFFFFFFFFFFFFFFFFFFFFFFFF2D
:1003E000FFFFFFFFFFFFFFFFFFFFFFFFFFFFFFFF1D
:1003F000FFFFFFFFFFFFFFFFFFFFFFFFFFFFFFFF0D
:10040000FFFFFFFFFFFFFFFFFFFFFFFFFEFFFFFFFD
:1004100010B5054C237833B9044B13B10448AFF33E
:1004200000800123237010BD7C97FF1F0000000097
:1004300008B3000008B5064B1BB106480649AFF3E8
:1004400000800648036813B1054B03B1984708BD07
:100450000000000008B300008097FF1F7C97FF1F7B
:100460000000000030B583B01F4B1B782BB91F4A2A
:1004700013601F4A13601F4A13601C4B1B68632BD9
:1004800002DD6322194B1A601B4D184B1A68184B7A
:100490001B681849096800912846184906F02AFE89
:1004A000174C192300930023019320467821CD2275
:1004B000B42301F01BFB20467821CD2202F070FE10
:1004C00020464FF6FF7102F08BFE2046032102F01A
:1004D00081FE284606F092FE024623685B682046AD
:1004E0002946984703B030BDCE97FF1FD897FF1F0E
:1004F000FC97FF1F7498FF1FA497FF1F48A80000D8
:100500002098FF1F2DE9F84380460024DFF8709003
:10051000144F154EA0450ADD144BE25C144B1A60D3
:10052000144BE35C3360144BE35C3B6006E0002358
:10053000C9F800303B6033600D4A136030780C4BD3
:1005400019783A7800F0C4FD02460C4D2846A1B255
:1005500000F09AFD284600F007FD0134082CD9D19F
:10056000BDE8F883B097FF1FB897FF1F748CFF1F7B
:10057000C497FF1FD48CFF1FC88CFF1F0498FF1F58
:100580005898FF1F10B586B004462048072102F096
:1005900021FE1F4B1B78A34235D01D4B1C701CB98C
:1005A00052221C4B1A7013E0012C03D14E22194B1E
:1005B0001A700DE002A8611E0A2203F0FFFE02A8D5
:1005C000002103F01BFF134B187002A803F05EFE1E
:1005D0000E4C3C2300930023019320468C2164227F
:1005E000282301F083FA20468C21642202F0D8FDF2
:1005F00020464FF6FF7102F0F3FD23681B6820468A
:10060000044A1178984706B010BD00BF2098FF1F1C
:10061000C097FF1F9A97FF1F30B583B00246174B54
:100620001B68984228D0154B1860154D284615496F
:1006300006F060FD144C192300930023019320461B
:1006400075211C225A2301F051FA204675211C22E3
:1006500002F0A6FD20464FF6FF7102F0C1FD2046D4
:10066000032102F0B7FD284606F0C8FD02462368C4
:100670005B6820462946984703B030BD8098FF1F2D
:100680009C97FF1F58A800002098FF1F30B583B02B
:100690000246174B1B78834228D0154B1870154D16
:1006A0002846154906F026FD144C19230093002313
:1006B00001932046F0211C22322301F017FA204634
:1006C000F0211C2202F06CFD20464FF6FF7102F073
:1006D00087FD2046032102F07DFD284606F08EFDB1
:1006E000024623685B6820462946984703B030BD20
:1006F000D597FF1F9C97FF1F60A800002098FF1F41
:1007000030B583B00246174B1B68984228D0154B72
:100710001860154D2846154906F0ECFC144C1723BB
:1007200000930023019320461E2178223C2301F0F0
:10073000DDF920461E21782202F032FD20464FF6D8
:10074000FF7102F04DFD2046032102F043FD2846D3
:1007500006F054FD024623685B6820462946984708
:1007600003B030BD4498FF1F9C97FF1F60A8000096
:100770002098FF1F30B583B00246174B1B78834289
:1007800028D0154B1870154D2846154906F0B2FCB7
:10079000144C17230093002301932046F021782264
:1007A0003C2301F0A3F92046F021782202F0F8FC66
:1007B00020464FF6FF7102F013FD2046032102F0A0
:1007C00009FD284606F01AFD024623685B682046AC
:1007D0002946984703B030BDC297FF1F9C97FF1F63
:1007E00060A800002098FF1F08B510F0100F25D159
:1007F00010291DD11F4B1A681F4B1B68D31A322BAF
:1008000037D91E4B1B7833B90020FFF77BFE01223E
:100810001A4B1A7007E01A4BB3F94000FFF772FE4B
:100820000022164B1A70134B1A68134B1A6008BD3E
:10083000134B33F92100FFF765FE08BD0D4B1A6815
:100840000D4B1B68D31AC82B13D90C4B1B7833B92B
:100850000020FFF757FE0122084B1A7005E0082020
:10086000FFF750FE0022054B1A70024B1A68024B2C
:100870001A6008BDB098FF1FE097FF1FC197FF1FC8
:10088000808CFF1F30B585B0884B1A68884B1B6879
:10089000D31AB3F57A7F02D90022864B1A7003F07F
:1008A000B7FB002840F3008103F0B2FB112840F3AE
:1008B000CF8003F061FBFF2840F0F68003F05CFB83
:1008C0007D4D287003F058FB7C4B187003F054FBEF
:1008D0007B4B187003F050FB7A4B187003F04CFB05
:1008E000794B187003F048FB784B187003F044FB09
:1008F000774B187003F040FB764B187003F03CFB0D
:10090000754B187003F038FB744C207003F034FB07
:10091000734B187003F030FB014668460A2203F05F
:100920004DFD7048694603F02FFD684603F0AEFCAC
:1009300003F022FB6C4B187003F01EFB6B4B18701E
:1009400003F01AFB6A4B18702B7803F00F01694A09
:100950001170C3F30211684A1160DB09674A136022
:10096000237813F0010F14BF10210021644A117085
:10097000C3F34101634A1160C3F3C001624A1160CD
:10098000C3F300114B4A1170C3F340125F490A7060
:10099000C3F380135E490B7049490C7849490978C3
:1009A00041EA04245B490C6047490C7847490978BF
:1009B00041EA042458490C6045490C7845490978B6
:1009C00041EA042455490C601AB1384A1168544A66
:1009D0001160B3B1354B1A68524B1A60424B1A780A
:1009E000424B1B7843EA0223C3F309014E4A1160CC
:1009F0005B0A4E4A1360C0B24D4B1860FFF732FDE0
:100A000007E0394B1A78394B1B7843EA0222494BED
:100A10001A60264B1A68264B1A60284B1878FFF785
:100A2000B1FD3D4B1868FFF7F7FD3A4B1868FFF72B
:100A3000A1FE3A4B1868FFF763FE354B1878FFF7B5
:100A400025FE2F4B1878244B1978FFF7CDFE2BE0AD
:100A500003F0DEFA012827DD03F0DAFA032823DCAD
:100A600003F08AFA144B1870334C23685B682046F5
:100A7000324901229847324D204629780A22002324
:100A800003F0C8FB204669780A22002303F0C2FB6A
:100A90002046A9780A22002303F0BCFB2046E9780F
:100AA0000A22002303F0B6FB05B030BDB098FF1F4B
:100AB000C897FF1FCE97FF1F8498FF1F7098FF1FD6
:100AC000F897FF1F5098FF1FD497FF1FD697FF1F5F
:100AD0007898FF1F7998FF1FCD97FF1FDC97FF1FA6
:100AE000B497FF1FE497FF1F0098FF1F1898FF1F80
:100AF0006C98FF1F6E98FF1F8898FF1F7C98FF1F40
:100B0000CC97FF1FF497FF1F4C98FF1F6598FF1F9E
:100B10006498FF1F6098FF1F1C98FF1F9098FF1F8D
:100B2000D097FF1FBC97FF1F7498FF1FFC97FF1FF4
:100B3000D897FF1F5C98FF1FEC99FF1F68A8000063
:100B4000C48CFF1F08B5FFF79DFE08BD2DE9F047D7
:100B500084B0804C642700970A2601964FF6FF79EF
:100B6000CDF8089020466E214B223B4601F0A6FDB1
:100B70004FF01408CDF8008003250195CDF80890BA
:100B8000204678214122502301F018FE2046002102
:100B900002F026FB20468921442202F001FB204678
:100BA000022102F017FB23685B6820466A49042291
:100BB0009847009701964FF6E079CDF808902046C7
:100BC00005214B223B4601F079FDCDF800800195CF
:100BD000CDF8089020460F214122502301F0EEFD70
:100BE0002046002102F0FCFA20462021442202F097
:100BF000D7FA2046022102F0EDFA23685B6820460E
:100C00005649042298470097019640F2FF79CDF8A3
:100C100008902046D7214B223B4601F04FFDCDF8EE
:100C200000800195CDF808902046E1214122502313
:100C300001F0C4FD2046F821442202F0B1FA20461A
:100C4000022102F0C7FA23685B68204644492A461D
:100C500098474FF03209CDF8009001964FF4FC6AA6
:100C6000CDF808A020466E2132463B4601F026FD15
:100C7000CDF800800195CDF808A02046782100220B
:100C8000502301F09BFD2046002102F0A9FA2046E6
:100C90008F212A4602F084FA2046022102F09AFAB5
:100CA00023685B6820462F492A469847CDF8009074
:100CB00001964FF6A00ACDF808A02046D72132466B
:100CC0003B4601F0FBFCCDF800800195CDF808A073
:100CD0002046E1210022502301F070FD2046002132
:100CE00002F07EFA2046F8212A4602F059FA204600
:100CF000022102F06FFA23685B6820461A492A46EF
:100D00009847CDF8009001964AF6EC760296204678
:100D10000521BE224FF49B7301F0D0FCCDF800807A
:100D20000195029620460F21B422502301F046FD82
:100D300020462021B72202F033FA2046022102F099
:100D400049FA23685B68204608490422984704B0A2
:100D5000BDE8F0872098FF1F6CA8000074A8000071
:100D60007CA8000080A8000084A8000088A80000DB
:100D700038B52D4C204601F079F92046002101F0CC
:100D8000A3F82A4800F0E4F82046032101F0ACF86B
:100D90002046002101F098F8FFF7D8FE0125244BEA
:100DA0001D60244B1D700024234B1C70234B1D60C1
:100DB000234B1D702046FFF7A3FC0720FFF7E2FB43
:100DC0002046FFF729FC2046FFF7D4FC0720FFF759
:100DD00099FB2046FFF75AFCFFF744FB40F6B8307A
:100DE00002F07AFA2846FFF7CDFB2046FFF78AFB90
:100DF000144B1C70144B1C70144B1C70144B1C7047
:100E0000144B1C70144B1C70144B1C60144B1C6056
:100E10004FF47F42134B1A60134B1C6040F6B830FE
:100E200002F05AFA38BD00BF2098FF1F0498FF1F38
:100E30008098FF1FC297FF1FC097FF1F4498FF1F96
:100E4000D597FF1F6F98FF1F9997FF1F9897FF1F58
:100E50004898FF1FC197FF1F6D98FF1F8898FF1FBD
:100E60006898FF1F8C98FF1F5498FF1F30B585B0FE
:100E7000124D284608211022022300F02BF8104CB6
:100E800028461049224605F0A3FB0B2300930D23AF
:100E900001930C2302930C480A210F220E2300F029
:100EA00045FA0A4D2846002103F03CFA2846084935
:100EB000224605F08DFB05B030BD00BF0498FF1F32
:100EC000708CFF1F390F00002098FF1FE497FF1F51
:100ED0008D42000070B504461E46018001EB4101C1
:100EE0008DB24580027100234371C67303612846A9
:100EF00005F0A6FBA06018B100212A4605F0ACFE63
:100F000016F0010F06D0012323730023637302231D
:100F1000A3730FE016F0040F06D0012323730223FE
:100F200063730023A37305E000232373012363731A
:100F30000223A373204670BD10B50446806808B133
:100F400005F086FB2079002102F082F9204610BDD1
:100F500010B504460079012102F07AF920790021C8
:100F600002F052F910BD00BF2DE9F0470446836836
:100F7000002B7FD002F08EF92369C01A3128F9D9ED
:100F800072B6A768B4F802E0BE4422793A4B53F82F
:100F900032003A4B1A6842F080721A60384B1A6875
:100FA00042F001021A60E37B13F0020F2FD0354BA1
:100FB0001B687833774524D24FF0080A4FF0800938
:100FC000304A4FF0010C17F8018B56464D46116818
:100FD000C91A7729FBD9136880F880C015EA080F71
:100FE00004D01168C91A4B29FBD903E01168C91A4A
:100FF0001729FBD980F800C16D08013EE7D177457C
:10100000E1D120490A68D21A772AFBD92EE01D4B7C
:101010001B68F033774524D24FF0080A4FF080095F
:10102000184A4FF0010C17F8018B56464D461168CF
:10103000C91AEF29FBD9136880F880C015EA080F98
:1010400004D01168C91A7229FBD903E01168C91AC2
:101050002F29FBD980F800C16D08013EE7D1774503
:10106000E1D108490A68D21AEF2AFBD962B602F028
:1010700011F92061BDE8F08708AE0000FCED00E04A
:10108000001000E0041000E070B403888B421DD90A
:10109000160C150A43791BB9F6B2EDB2D2B20BE0C9
:1010A000F6B203FB06F6360AEDB205FB03F52D0A90
:1010B000D2B202FB03F2120A01EB4101846821441F
:1010C000037BCE54437BCD54807B0A5470BC704765
:1010D00042EA012242EA0040704700BF184B1A68FA
:1010E00042F480521A60174B174A1A60174ADA60A6
:1010F00002F180421A61164A1A60164B1B7813F0EF
:10110000010F07BF4FF41072134B4FF40072134BD3
:101110001A60104B1B7813F0020F4FF400720CBFD3
:101120000F4B104B1A600B4B1B7813F0040F07BFCB
:101130004FF410720C4B4FF400720C4B1A60704756
:101140003C80044000C0024001401F0001100038F4
:1011500000001F80E199FF1F18B0044008C0044040
:101160001CB004400CC0044014B0044004C004404F
:10117000A0F10903DBB2012B0CD900F0FB03022B19
:101180000AD00F280AD01438C0B203288CBF002020
:1011900001207047012070470120704701207047EF
:1011A00038B504460D46FFF7E3FF034600283BD061
:1011B0002846FFF7DDFF0346B0B3022C02D10A2D0B
:1011C0000AD128E00A2C02D1022D0AD125E0062CF2
:1011D00002D1092D0AD122E0092C02D1062D0CD111
:1011E0001FE0142C02D1172D0ED11CE0172C04D1B6
:1011F000B5F1140318BF012316E0152C04D1B5F185
:10120000160318BF01230FE0162C0DD1B5F11503FD
:1012100018BF012308E0002306E0002304E00023B8
:1012200002E0002300E00023184638BD02381528EC
:1012300042D8DFE800F0114141411D4141170B4107
:101240004141413B41414141232F35294FF4007237
:101250001A4B1A60012070474FF40072184B1A6045
:10126000012070474FF40072164B1A60022070473D
:101270004FF40072144B1A60022070474FF4007252
:10128000124B1A60042070474FF40072104B1A6022
:10129000042070474FF400720E4B1A60082070470C
:1012A0004FF400720C4B1A60082070474FF4007224
:1012B0000A4B1A60102070470020704710B004409D
:1012C00000C004400CB0044010C0044014C00440EE
:1012D00008B0044018C0044004B0044000B004400A
:1012E000F0B4074600204FF0010CCB08FC5C01F085
:1012F0000703C3F108039A420BD300FA03F50CFA73
:1013000003F6013E344044EA05001944D21AECD1F8
:101310000AE090409B1A44FA03F3012101FA02F219
:10132000013A1340DBB21843F0BC704770B400259B
:101330000571114E06604177827703779DF80C3076
:1013400080F822309DF8103080F823309DF814305A
:1013500080F82130F023C3804FF4A0730381C5745B
:1013600045818581012383744FF6FF720282C28119
:101370000375856170BC704700AE000070B4002931
:10138000C0F20881B0F906408C4240F30381002A84
:10139000C0F20081B0F90840944240F3FB807E4CDB
:1013A0002478002C28D072B67B4C247814F0010FDE
:1013B00007D07A4C26687A4D2D683540794E3560D5
:1013C0002560754C247814F0020F07D0764C2668FF
:1013D000734D6D683540734E756025606E4C247892
:1013E00014F0040F07D0714C26686D4DAD68354080
:1013F0006C4EB560256062B66D4CE468B4F1384F50
:101400000AD06B4C6B4D25604FF03845E5604FF0CE
:1014100078452561684D25608EB292B290F8201013
:10142000090441F0004141F02A01614C6163E16A25
:1014300011F0F00F18BFA56B01F47041B1F5405FDA
:10144000F5D8C47F46EA044444F0104458494C633C
:101450000C46E16A11F0F00F18BFA56B01F4704162
:10146000B1F5405FF5D8C17F46EA014646F0104627
:101470004F494E630C46E16A11F0F00F18BFA56B9F
:1014800001F47041B1F5405FF5D890F820100904DF
:1014900041F0004141F02B01454C6163E16A11F0DC
:1014A000F00F18BFA56B01F47041B1F5405FF5D89E
:1014B000C47F42EA044444F010443D494C630C4666
:1014C000E16A11F0F00F18BFA56B01F47041B1F59E
:1014D000405FF5D8C17F42EA014242F010423449F0
:1014E0004A63CA6A12F0F00F18BF8C6B02F47042A4
:1014F000B2F5405FF5D890F82020120442F0004287
:1015000042F02C022A494A63CA6A12F0F00F18BF4F
:101510008C6B02F47042B2F5405FF5D8244A116832
:10152000C07F43EA004343F0C0535363D36A13F0D0
:10153000805F04D113F0F00FF8D0936BF6E71C4BEB
:101540004FF08052DA621960DB6A13F0F00F05D0B9
:10155000174B9A6BDA6A12F0F00FFAD10E4B1B7828
:10156000C3B113F0010F03D00E4B1A68134B1A606E
:10157000094B1B7813F0020F03D00A4B5A68104B2B
:101580001A60054B1B7813F0040F03D0054B9A68C3
:101590000C4B1A6070BC7047AC98FF1F80E100E0F4
:1015A0009498FF1FA098FF1F84E100E088E100E00D
:1015B00000C0024001401F0000001F8000E100E069
:1015C00004E100E008E100E0F0B4BDF81040B0F93B
:1015D00006608E4240F3268105892EB2964240F382
:1015E0002181D718013FB742A4BFC2EB05031BB24C
:1015F0008D4D2D78002D28D072B68B4D2D7815F09D
:10160000010F07D0894D2F68894E36683E40894FBB
:101610003E602E60844D2D7815F0020F07D0864D68
:101620002F68834E76683E40824F7E602E607E4DEE
:101630002D7815F0040F07D0804D2F687C4EB668CA
:101640003E407C4FBE602E6062B67D4DED68B5F1C8
:10165000384F0AD07A4D7B4E2E604FF03846EE6000
:101660004FF078462E61784E2E608FB291B29DB2C7
:101670004A1E2A4492B290F820301B0443F00043E3
:1016800043F02A036E4E7363F36A13F0F00F18BF32
:10169000D6F838C003F47043B3F5405FF4D8C67F82
:1016A00047EA064646F01046654B5E631E46F36AFF
:1016B00013F0F00F18BFD6F838C003F47043B3F539
:1016C000405FF4D8C67F47EA064646F010465C4BBA
:1016D0005E631E46F36A13F0F00F18BFB76B03F496
:1016E0007043B3F5405FF5D890F820301B0443F009
:1016F000004343F02B03524E7363F36A13F0F00F71
:1017000018BFB76B03F47043B3F5405FF5D8C37FE0
:1017100041EA034141F01041494B59631946CB6AF4
:1017200013F0F00F18BF8E6B03F47043B3F5405FF6
:10173000F5D8C37F42EA034242F01042404B5A635D
:101740001A46D36A13F0F00F18BF916B03F470437D
:10175000B3F5405FF5D890F820301B0443F0004308
:1017600043F02C03364A5363D36A13F0F00F18BFCB
:10177000916B03F47043B3F5405FF5D8304A11E044
:10178000C37F44EA034343F010435363D36A13F027
:10179000F00F18BF916B03F47043B3F5405FF5D8B9
:1017A000013DADB22BB2012BEADC254B1968C27F9B
:1017B00044EA024242F0C0525A631A46D36A13F016
:1017C000805F04D113F0F00FF8D0936BF6E71C4B59
:1017D0004FF08052DA621960DB6A13F0F00F05D027
:1017E000174B9A6BDA6A12F0F00FFAD10E4B1B7896
:1017F000C3B113F0010F03D00E4B1A68134B1A60DC
:10180000094B1B7813F0020F03D00A4B5A68104B98
:101810001A60054B1B7813F0040F03D0054B9A6830
:101820000C4B1A60F0BC7047AC98FF1F80E100E0E1
:101830009498FF1FA098FF1F84E100E088E100E07A
:1018400000C0024001401F0000001F8000E100E0D6
:1018500004E100E008E100E0F0B4BDF81040C68803
:1018600037B28F4240F32781B0F90850954240F3D8
:101870002281CF18013F35B2AF42A4BFC1EB0603AE
:101880001BB28E4D2D78002D28D072B68B4D2D7841
:1018900015F0010F07D08A4D2F688A4E36683E40FA
:1018A000894F3E602E60854D2D7815F0020F07D0D0
:1018B000864D2F68834E76683E40834F7E602E6053
:1018C0007E4D2D7815F0040F07D0814D2F687D4E89
:1018D000B6683E407C4FBE602E6062B67D4DED68BE
:1018E000B5F1384F0AD07B4D7B4E2E604FF0384615
:1018F000EE604FF078462E61784E2E601FFA81FC24
:101900009DB20CF1FF372F44BFB292B290F8203055
:101910001B0443F0004343F02A036E494B63CB6A38
:1019200013F0F00F18BF8E6B03F47043B3F5405FF4
:10193000F5D8C17F4CEA014141F01041654B596334
:101940001946CB6A13F0F00F18BF8E6B03F4704387
:10195000B3F5405FF5D8C17F47EA014141F010413E
:101960005C4B59631946CB6A13F0F00F18BF8E6BAE
:1019700003F47043B3F5405FF5D890F820301B04B2
:1019800043F0004343F02B0352494B63CB6A13F0FF
:10199000F00F18BF8E6B03F47043B3F5405FF5D8BA
:1019A000C17F42EA014141F010414A4B5963194657
:1019B000CB6A13F0F00F18BF8E6B03F47043B3F5CE
:1019C000405FF5D8C37F42EA034242F01042414BE8
:1019D0005A631A46D36A13F0F00F18BF916B03F4E1
:1019E0007043B3F5405FF5D890F820301B0443F006
:1019F000004343F02C03374A5363D36A13F0F00FCC
:101A000018BF916B03F47043B3F5405FF5D8314ACA
:101A100011E0C37F44EA034343F010435363D36AA6
:101A200013F0F00F18BF916B03F47043B3F5405FF0
:101A3000F5D8013DADB22BB2012BEADC254B19687C
:101A4000C27F44EA024242F0C0525A631A46D36A45
:101A500013F0805F04D113F0F00FF8D0936BF6E72A
:101A60001C4B4FF08052DA621960DB6A13F0F00F02
:101A700005D0184B9A6BDA6A12F0F00FFAD10F4BBF
:101A80001B78C3B113F0010F03D00F4B1A68144B2E
:101A90001A600A4B1B7813F0020F03D00A4B5A68E6
:101AA000104B1A60054B1B7813F0040F03D0064B44
:101AB0009A680D4B1A60F0BC704700BFAC98FF1FCE
:101AC00080E100E09498FF1FA098FF1F84E100E0F0
:101AD00088E100E000C0024001401F0000001F80BC
:101AE00000E100E004E100E008E100E02DE9F00F92
:101AF000BDF92070BDF82460C48825B28D4240F342
:101B0000CF8105890FFA85FC944540F3C98101EB2B
:101B1000030808F1FF380FFA84FCE045A4BFC1EBCD
:101B200004031BB202EB070C0CF1FF3C2CB2A445E2
:101B3000A4BFC2EB05052FB2874C2478002C34D00B
:101B400072B6854C247814F0010F0BD0834CD4F876
:101B500000C0834D2D680CEA0505DFF81CC2CCF8E7
:101B6000005025607C4C247814F0020F0BD07D4C83
:101B7000D4F800C07A4D6D680CEA0505DFF8F8C1AD
:101B8000CCF804502560744C247814F0040F0BD06A
:101B9000754CD4F800C0724DAD680CEA0505DFF84D
:101BA000D8C1CCF80850256062B6704CE468B4F136
:101BB000384F0AD06D4C6E4D25604FF03845E560CA
:101BC0004FF0784525616B4D25601FFA81F808F1CB
:101BD000FF3C9C441FFA8CFC94B2611E394489B2CC
:101BE00090F82020120442F0004242F02A025F4D99
:101BF0006A639946EA6A12F0F00F18BFAB6B02F401
:101C00007042B2F5405FF5D84B46C57F48EA0545BE
:101C100045F01045554A55631546C846EA6A12F024
:101C2000F00F18BFAB6B02F47042B2F5405FF5D80D
:101C30004346C57F4CEA054545F010454B4A556380
:101C40001546C446EA6A12F0F00F18BFAB6B02F4F7
:101C50007042B2F5405FF5D8634690F82020120438
:101C600042F0004242F02B02404D6A63EA6A12F0F1
:101C7000F00F18BFAB6B02F47042B2F5405FF5D8BD
:101C80006346C27F44EA024444F01044374A546336
:101C90001446E26A12F0F00F18BFA56B02F470420E
:101CA000B2F5405FF5D8C27F41EA024141F01041F0
:101CB0002E4A51631146CA6A12F0F00F18BF8C6B9E
:101CC00002F47042B2F5405FF5D890F8202012047B
:101CD00042F0004242F02C0224494A63CA6A12F0E0
:101CE000F00F18BF8C6B02F47042B2F5405FF5D86C
:101CF000002F40F3B9801D49DFF85CC0DFF868A011
:101D0000DFF86090DFF85480DFF870B0A7E0C27FA2
:101D100046EA024242F010424A63CA6A12F0F00FE9
:101D200018BF8D6B02F47042B2F5405FF5D8013CEC
:101D300024B2012CEBD10C68C27F46EA024242F089
:101D4000C0524A63CA6A12F0805F19D112F0F00FD4
:101D5000F8D08A6BF6E700BFAC98FF1F80E100E087
:101D60009498FF1F84E100E088E100E000C0024099
:101D700001401F0000001F80A098FF1F08E100E045
:101D80004FF08052CA620C60CA6A12F0F00F04D0A1
:101D90008A6BCA6A12F0F00FFAD1012F5CDD17F0DE
:101DA000010F59D09CF80020002A47D012F0010FF3
:101DB00003D03D4A14683D4A14609CF8002012F09C
:101DC000020F03D0384A5268394C22609CF8002038
:101DD00012F0040F03D0344A9268CBF800209CF82C
:101DE00000205AB372B69CF8002012F0010F08D000
:101DF000D8F800402F4A126822402B4C2260C8F8C5
:101E000000209CF8002012F0020F08D0D9F8004002
:101E1000284A52682240244C6260C9F800209CF88D
:101E2000002012F0040F08D0DAF80040214A92682E
:101E300022401D4CA260CAF8002062B6CA68B2F106
:101E4000384F09D01C4A0A604FF03842CA604FF040
:101E500078420A61194A0A60013F3FB227B1012B5B
:101E60007FF769AF1C4652E7154B1B78C3B113F0DF
:101E7000010F03D00C4B1A680C4B1A60104B1B78E7
:101E800013F0020F03D0084B5A68094B1A600C4B31
:101E90001B7813F0040F03D0034B9A68094B1A60A8
:101EA000BDE8F00F704700BFA098FF1F00E100E001
:101EB00004E100E09498FF1F01401F0000001F8014
:101EC000AC98FF1F08E100E000B583B0B0F9063020
:101ED000B0F908200092019100210A46FFF706FEA2
:101EE00003B05DF804FB00BF10B490F820301B0471
:101EF00043F0004343F036035B4A5363D36A13F065
:101F0000F00F18BF946B03F47043B3F5405FF5D83E
:101F100001F00301C174032900F29F80DFE801F0A2
:101F200002295077504A1168C37F1B0443F00063B5
:101F300043F048035363D36A13F0805F04D113F076
:101F4000F00FF8D0936BF6E7474B4FF08052DA6210
:101F50001960DB6A13F0F00F05D0434B9A6BDA6A15
:101F600012F0F00FFAD1F023C3804FF4A073038175
:101F700073E03D4A1168C37F1B0443F0006343F0E4
:101F800028035363D36A13F0805F04D113F0F00F7A
:101F9000F8D0936BF6E7344B4FF08052DA62196059
:101FA000DB6A13F0F00F05D02F4B9A6BDA6A12F050
:101FB000F00FFAD14FF4A073C380F02303814CE0FB
:101FC000294A1168C37F1B0443F0006343F0880370
:101FD0005363D36A13F0805F04D113F0F00FF8D08D
:101FE000936BF6E7204B4FF08052DA621960DB6AA0
:101FF00013F0F00F05D01C4B9A6BDA6A12F0F00F59
:10200000FAD1F023C3804FF4A073038125E0164A70
:102010001168C37F1B0443F0006343F0E80353637C
:10202000D36A13F0805F04D113F0F00FF8D0936BF4
:10203000F6E70D4B4FF08052DA621960DB6A13F05D
:10204000F00F05D0084B9A6BDA6A12F0F00FFAD154
:102050004FF4A073C380F023038100234381838165
:102060005DF8044B704700BF00C0024070B50546E4
:1020700090F822300B2B02D0072B40F0AE8195F860
:10208000212002F0FB01082940F0A78195F82310D8
:10209000A1F10D00C0B2012800F29F810B2B05D1E8
:1020A0006E4B187820F00100187006E0072B04D161
:1020B0006A4B187840F0010018700C2A05D1674B64
:1020C0001A7822F002021A7006E0082A04D1634B43
:1020D0001A7842F002021A700D2905D15F4B1A7866
:1020E00022F004021A7006E00E2904D15B4B1A7824
:1020F00042F004021A70FEF7F1FF687FA97FFFF734
:102100004FF870B1687FFFF791F80446E877A87F31
:10211000FFF78CF8204385F82000287FFF2805D1A1
:102120001CE00023EB7785F8203070BD012101F021
:102130008FF8287F012101F067F8052001F0CCF825
:10214000287F002101F060F8142001F0C5F8287FF5
:10215000012101F059F8962001F0BEF8404B1B78A0
:10216000002B28D072B63E4B1B7813F0010F07D01E
:102170003C4B19683C4A12680A403C490A601A60A4
:10218000374B1B7813F0020F07D0394B1968364ACA
:1021900052680A4035494A601A60314B1B7813F087
:1021A000040F07D0334B19682F4A92680A402F4911
:1021B0008A601A6062B6304BDB68B3F1384F0AD0E0
:1021C0002D4B2E4A1A604FF03842DA604FF07842B9
:1021D0001A612B4A1A602B48274A0378591ECEB23F
:1021E0004BB3841C437895F8201043EA014343F035
:1021F00000435363D36A13F0F00F18BF916B03F4DD
:102200007043B3F5405FF5D8A01911E014F8013B15
:10221000E97F43EA014343F000435363D36A13F079
:10222000F00F18BF916B03F47043B3F5405FF5D81E
:102230008442EBD1D1E7104A116895F820301B0495
:1022400043F0006343F011035363D36A13F0805FDC
:102250001AD113F0F00FF8D0936BF6E7E199FF1F56
:10226000AC98FF1F80E100E09498FF1FA098FF1F2B
:1022700084E100E088E100E000C0024001401F006E
:1022800000001F808CAD0000544B4FF08052DA628A
:102290001960DB6A13F0F00F05D0504B9A6BDA6AC5
:1022A00012F0F00FFAD14E4B1B78C3B113F0010FAF
:1022B00003D04C4B1A684C4B1A60494B1B7813F0F7
:1022C000020F03D0474B5A68484B1A60444B1B78A7
:1022D00013F0040F03D0434B9A68454B1A607820E3
:1022E00000F0FAFF3E4B1B78002B28D072B63C4B17
:1022F0001B7813F0010F07D03E4B19683E4A126855
:102300000A4038490A601A60354B1B7813F0020FF7
:1023100007D03A4B1968384A52680A4031494A6036
:102320001A602F4B1B7813F0040F07D0344B196839
:10233000314A92680A402B498A601A6062B6274B7C
:10234000DB68B3F1384F0AD0244B2E4A1A604FF0A5
:102350003842DA604FF078421A612B4A1A601F4AFD
:10236000116895F820301B0443F0006343F0290303
:102370005363D36A13F0805F04D113F0F00FF8D0E9
:10238000936BF6E7154B4FF08052DA621960DB6A07
:1023900013F0F00F05D0114B9A6BDA6A12F0F00FC0
:1023A000FAD10F4B1B78C3B113F0010F03D00D4BC3
:1023B0001A680D4B1A600A4B1B7813F0020F03D0FA
:1023C000084B5A68094B1A60054B1B7813F0040F31
:1023D00003D0044B9A68064B1A6070BD00C00240DF
:1023E000AC98FF1FA098FF1F00E100E004E100E0AF
:1023F00008E100E080E100E09498FF1F84E100E044
:1024000088E100E001401F0000001F802DE9F04F2F
:1024100089B0019005921E469DF84870BDF84C9019
:102420009BB2C3F10105ADB2C3EBC3335B009BB2FA
:102430000493002E40F39F804FF0000807F0040340
:10244000DBB2069389B203914A1C079215F4004F40
:1024500008D1013E36B2049A931C9BB29AB2049200
:102460001D44ADB21FFA88F4631C9BB2029305EBC6
:1024700044050335ADB2069BD3B1059A1FFA82FA23
:102480001FFA86FB079921440BEB0A02019809B257
:1024900012B24B46FEF772FF039959440AF1010A42
:1024A00004EB0A02019809B212B24B46FEF766FF2E
:1024B00017F0020F1AD0059B1FFA83FA1FFA86FB4A
:1024C00007992144CBEB0A02019809B212B24B469C
:1024D000FEF754FF039959440AF1FF3AC4EB0A028C
:1024E000019809B212B24B46FEF748FF17F0080FE9
:1024F0001BD01FFA86FB059A1FFA82FA039BCBEBCF
:1025000003010AF101022244019809B212B24B46BA
:10251000FEF734FF039A511E091B0BEB0A020198C8
:1025200009B212B24B46FEF729FF17F0010F1BD07C
:102530001FFA86FA059B1FFA83FB039ACAEB020176
:102540000BF1FF32121B019809B212B24B46FEF793
:1025500015FF039A531E191BCAEB0B02019809B20F
:1025600012B24B46FEF70AFF08F10108029A13B2B5
:102570009E423FF76BAF09B0BDE8F08F2DE9F04FF9
:102580008DB0049009921E469DF858000690BDF942
:102590005C200A92BDF860300593B3B2C3F1010428
:1025A000A4B2C3EBC3335B009BB20393002E40F392
:1025B0008280002500F00100079089B208914A1C32
:1025C0000B922F4614F4004F08D1013E36B2039807
:1025D000831C9BB29AB203921C44A4B2BDB26B1C82
:1025E0009BB202934FEA45081FFA88F808F10303EB
:1025F0001C44A4B2079B4BB309981FFA80FB1FFA37
:1026000086F90A9A1FFA82FA0B992944C9EB0B0240
:102610000AF1010303EB490305980090049809B2FD
:1026200012B21BB2FEF7D0FF089949440BF1FF3BF1
:10263000C5EB0B020AF1030A08EB0A0305980090A8
:10264000049809B212B21BB2FEF7BEFF069A12F04E
:10265000020F2BD0099B1FFA83FB1FFA86F90A98F9
:102660001FFA80FA089A511E491BC9EB0B020AF1A6
:10267000010303EB490305980090049809B212B2D4
:102680001BB2FEF7A1FF089AC9EB02010BF1FF3B59
:10269000C5EB0B020AF1030A08EB0A030598009048
:1026A000049809B212B21BB2FEF78EFF0137029AEC
:1026B00013B29E4286DC0DB0BDE8F08F2DE9F04FDD
:1026C00089B0054607919246BDF94C70BDF850405F
:1026D00089B20391BEB28846B044C6EBC6394FEA10
:1026E00049091FFA89F9CDF810909BB20593CB46A2
:1026F0009B440FFA88F80FFA8BFB009441465B4627
:10270000FFF7AAF81FFA8AFABDF848900AEB090306
:10271000013B9BB206930094284641461AB25B46A1
:10272000FFF79AF8B244049B99440FFA8AFA0FFA19
:1027300089F900942846079952464B46FEF744FF14
:10274000DDF80CB005998B441FFA8BFB0BF1FF31C0
:102750000094284609B252464B46FEF735FF012346
:10276000009301942846414652463B46FFF74EFEF1
:10277000F3439B440FFA8BFB0223009301942846FA
:10278000594652463B46FFF741FE069B9E1B36B21A
:102790000423009301942846594632463B46FFF7EE
:1027A00035FE0823009301942846414632463B46B5
:1027B000FFF72CFE09B0BDE8F08F00BF2DE9F04F08
:1027C00087B080460592BDF940B0BDF94450BDF8D0
:1027D00048601FFA81F9ACB209EB0407C4EBC431BD
:1027E000490089B204911FFA83FA3FB20B46534461
:1027F000CDF800B0019639461BB2FFF777F9059B7B
:1028000023440BF1FF3B049A93440AF1FF3AD1446D
:10281000C4EB09010FFA83FA012300930FFA8BF43A
:1028200001940296404609B252462B46FFF7A6FE97
:1028300002230093019402964046394652462B46A5
:10284000FFF79CFE07B0BDE8F08F00BF2DE9F04F09
:102850008FB005468B460392BDF860A0BDF864C0FA
:102860009DF86860B0F906208A4240F3E282B0F930
:1028700008200398824240F3DC8206EB460201EB1B
:102880004202012A00F1D58200EBC602012A00F1C2
:10289000D082E24540F05681012E18D003EB83032D
:1028A000374606EB46010A9172000B92B000099080
:1028B00006EB860108910822059200200490012170
:1028C00006919F4A9A180D92B146564635E103EBA0
:1028D0008303039A96B206F1080292B2039201278B
:1028E000974A9A180492B946574680E00498815C4A
:1028F00019EA010F18BF43F001035B00DBB201329C
:10290000052AF3D15C08002B67D01F2C02D01E2CA7
:1029100017D10AE000972846594632B20523FEF740
:102920009BFF5AE01E2C10D101E04FF0000A0AEB89
:102930000B010097284609B232B20423FEF78CFF40
:102940004BE04FF0000A0FFA86F804F01C031C2B32
:1029500011D11FFA8AFA0AEB0B010097284609B237
:1029600042460323FEF778FF2401E4B20AF1040A89
:102970001FFA8AFA2FE004F01803182B11D11FFA5E
:102980008AFA0AEB0B010097284609B24246022355
:10299000FEF762FFE400E4B20AF1030A1FFA8AFAC2
:1029A00019E014F0100F10D01FFA8AFA0AEB0B018D
:1029B000284609B242463B46FEF7E0FCA400E4B2DA
:1029C0000AF1020A1FFA8AFA05E06400E4B20AF189
:1029D000010A1FFA8AFA002CA4D14FEA49095FFACA
:1029E00089F90136B6B203998E4200F022820022A4
:1029F00013467BE70D98815C0698084218BF43F0A8
:102A000001035B00DBB20132052AF3D15C08002B25
:102A100000F084801F2C02D01E2C23D110E00499DA
:102A2000039B01FB0732CDF80090019628465946DA
:102A300012B2089BFFF75AF870E01E2C1FD101E07C
:102A40004FF0000A0AFB07B10498039B00FB073212
:102A5000CDF800900196284609B212B2099BFFF703
:102A600045F85BE00498039900FB07134FF0000A58
:102A70001BB207930FFA89F80B9A12B20C9204F06A
:102A80001C031C2B13D11FFA8AFA07FB0AB1CDF8DD
:102A900000800196284609B2079A0A9BFFF726F89C
:102AA0002401E4B20AF1040A1FFA8AFA34E004F0BD
:102AB0001803182B13D11FFA8AFA0AFB07B1CDF8B5
:102AC00000800196284609B2079A0C9BFFF70EF882
:102AD000E400E4B20AF1030A1FFA8AFA1CE014F0D7
:102AE000100F13D01FFA8AFA0AFB07B1CDF8008045
:102AF0000196284609B2079A4346FEF7F7FFA4005D
:102B0000E4B20AF1020A1FFA8AFA05E06400E4B2AC
:102B10000AF1010A1FFA8AFA002C8ED106984300A6
:102B2000DBB2069304994B1C9BB20493059A531E87
:102B30009BB20593002B00F07C810022134659E7DD
:102B400090A800009B4A1278002A28D072B6994AB1
:102B5000127812F0010F07D0974A10689749096858
:102B60000140974801601160924A127812F0020FFA
:102B700007D0944A106891494968014090484160E3
:102B800011608C4A127812F0040F07D08E4A106838
:102B90008A49896801408A488160116062B68B4A1F
:102BA000D268B2F1384F0AD0884A894911604FF093
:102BB0003841D1604FF078411161864911601FFAA8
:102BC0008BF406EB460704EB4707013FBFB20398BF
:102BD00081B201EBC600013880B295F820201204C2
:102BE00042F0004242F02A02DFF8E081C8F83420C7
:102BF0004246D2F82C8018F0F00F18BFD2F8389067
:102C000008F47048B8F5405FF3D8EA7F44EA02441C
:102C100044F010446D4A5463D46A14F0F00F18BFA6
:102C2000D2F8388004F47044B4F5405FF4D8EC7FF7
:102C300047EA044444F01044644A5463D46A14F0EC
:102C4000F00F18BF976B04F47044B4F5405FF5D8EB
:102C500095F82020120442F0004242F02B025B4C17
:102C600062632246D46A14F0F00F18BF976B04F425
:102C70007044B4F5405FF5D8EA7F41EA024141F083
:102C80001041524A5163D16A11F0F00F18BF946B92
:102C900001F47041B1F5405FF5D8E97F40EA0141A8
:102CA00041F01041494A5163D16A11F0F00F18BF49
:102CB000906B01F47041B1F5405FF5D895F8202094
:102CC000120442F0004242F02C0240494A630A4694
:102CD000D16A11F0F00F18BF906B01F47041B1F59B
:102CE000405FF5D803EB8303082104914FF00108FE
:102CF000394A1344354A9B4645E01BF8070008EA69
:102D00000000002814BF504660464946EB7F40EA69
:102D1000034343F010435363D36A13F0F00F18BF1B
:102D2000946B03F47043B3F5405FF5D80131CBB237
:102D30009E42EBD80137052FDFD10020EB7F4CEA14
:102D4000034343F010435363D36A13F0F00F18BFEB
:102D5000916B03F47043B3F5405FF5D80130C3B213
:102D60009E42EBD8039B01330393DBB29E4201D911
:102D70000027C2E74FEA48085FFA88F80498431E24
:102D80009BB204932BB1002EF4D00021039189460D
:102D9000EEE70E4B196895F82020120442F000620D
:102DA0005A63DA6A12F0805F18D112F0F00FF8D08F
:102DB0009A6BF6E7AC98FF1F80E100E09498FF1F44
:102DC000A098FF1F84E100E088E100E000C002401D
:102DD00001401F0000001F8090A80000164B4FF01C
:102DE0008052DA621960DB6A13F0F00F05D0124BE3
:102DF0009A6BDA6A12F0F00FFAD1104B1B78C3B15C
:102E000013F0010F03D00E4B1A680E4B1A600B4BD8
:102E10001B7813F0020F03D0094B5A680A4B1A6053
:102E2000064B1B7813F0040F03D0054B9A68074B31
:102E30001A600FB0BDE8F08F00C00240AC98FF1FD1
:102E4000A098FF1F00E100E004E100E008E100E0DD
:102E50002DE9F04F85B0804602920393DDF838A04B
:102E60000E46002939D001274FF0000B039B5D1C53
:102E7000029C00230FFA8AF900E00135013C07FAB1
:102E800004F2164203D00133002CF6D10EE0002BE1
:102E900020DD691EC91AB8F80E200092404609B21A
:102EA0004A461BB2FEF7D8FC5B4613E0002B0ADD56
:102EB000E91AB8F80E200092404609B20FFA8AF2D9
:102EC0001BB2FEF7C9FC0AF1010A0F9B013B0F93ED
:102ED000CCD102E0002CD0D1F5E705B0BDE8F08FF1
:102EE0002DE9F04F87B00746D0F818B09BF80E30A8
:102EF0008B4209D89BF80F20914205D8CB1A9BF83A
:102F0000121001FB03F113E09BF810209142C0F076
:102F1000FF809BF81100814200F2FA809BF80F00BD
:102F200001300144CB1A9A1A9BF8121001FB02F1EE
:102F3000DBF800009BF81220FEF7D2F9DBF808302E
:102F400003EB0008404600210322FEF7C9F90028E0
:102F500040F0DE809BF81390404603214A46FEF77E
:102F6000BFF9044609F103099BF81460404649463D
:102F70003246FEF7B5F90546B1449BF81560404668
:102F800049463246FEF7ACF9731E012202FA03F3FA
:102F9000184204D002FA06F3C31A049300E0049026
:102FA000049A0392B1449BF8166040464946324663
:102FB000FEF796F9731E012202FA03F3184204D0B9
:102FC00002FA06F3C31A059300E00590B1449BF89A
:102FD0001760404649463246FEF782F9B7F90A3093
:102FE000002BBCBF00237B817B89039A02FA83FA02
:102FF000BAF1000F04DA049A9B1A7B814FF0000AA1
:103000000AEB0402B7F906309A4210DD3B7D002B33
:103010007ED0039B002BAEBF0023049A53427B81DA
:103020009BF81820BB891344BB814FF0000ABB8971
:10303000B7F908101AB291426ADD7A891044788192
:103040009BF8192002FA83F35B1B059AC2EB030B72
:103050000495002D5CD0B1443B465F469B4609F188
:1030600001064FEAD90318F803206FEA090303F0B9
:10307000070342FA03F313F0010F20D10025C5EB3B
:103080000409B9F1200F28BF4FF02009404631460E
:103090004A46FEF725F90146009701230193584659
:1030A0004A4605EB0A03FFF7D3FE4E444D44AC42BB
:1030B000E5D80137049A013A0492B14625E040462A
:1030C00031460322FEF70CF90230039009F104099E
:1030D0000025661B202E28BF202640464946324642
:1030E000FEF7FEF801460097039B019358463246CF
:1030F00005EB0A03FFF7ACFEB1443544AC42E8D817
:10310000039A1744049B9B1A0493049A002AA6D19D
:1031100007B0BDE8F08F00BF10B584B004460B4681
:1031200082693AB10A2902D10023438134E0FFF7D2
:10313000D7FE31E00A2907D1827C838903EBC203E1
:1031400083810023438127E00D2925D0B0F90A109F
:10315000B0F90C20C0890090208A0190A07C0290D8
:103160002046FFF773FBA37C03EB4301628902EB6C
:10317000410292B26281217D71B112B2B4F906109E
:10318000A3EB830001EB40018A4205DDA28902EB3B
:10319000C303A38100236381012004B010BD00BFDD
:1031A00010B4002906DBC3881CB2A14203DB591E00
:1031B00009B200E000214181002A06DB038919B22F
:1031C0008A4203DB5A1E12B200E0002282815DF8BF
:1031D000044B7047002908BF01218174704700BF6C
:1031E0000182C181704700BF044B00221A6004496C
:1031F0000A60044A106010221A60704714D003401D
:1032000004D0034000D0034021281ED80F4B53F8B0
:10321000303093F8802212F0FF0F08D019B101224C
:1032200083F880207047012283F800217047074B04
:1032300003EBC000436821B11A6842F003021A6030
:1032400070471A6822F002021A60704708AE000048
:1032500021281CD80E4B03EBC0035B68012908D161
:103260000B4A52F8302082F880124FF4A2721A6092
:103270007047074A52F83020002082F8800219B9BE
:103280004FF480721A60704740F203121A60704760
:1032900008AE000072B60C4B1B680C4A12680C4951
:1032A000096862B611F0806F02D0322B88BF0132FC
:1032B000C3F5BB33FF330749A1FB03039B094FF45D
:1032C0007A7000FB0230704718E000E0B098FF1FF2
:1032D00004ED00E0ABAAAAAA38B50546FFF7DAFF6D
:1032E000044625B938BD013D0AD004F57A74FFF7CC
:1032F000D1FF001BB0F57A7FF5D201F0C5F8F6E7F3
:1033000038BD00BF10B5254B4FF400021A604FF0D6
:1033100080721A604FF000721A604FF080621A607B
:103320004FF000621A6000201D4B18604BF6FF71D1
:103330000433196028231B4A1360083213600832D3
:1033400013600832136008321360083213600832C9
:103350001360083213600922134C226004F5805474
:103360000434206004342160043423600834236072
:10337000143C226004F5FE24043420600B480160F4
:103380000B490B6008310B600A4B1A6001F038F9E9
:10339000FA20FFF7A1FF00F095FC10BD08E100E066
:1033A000048003400C8003400080034008800B40F1
:1033B0000C800B4000800B4030B40E4B1B7843F068
:1033C00002020D4C04EBC20460600C480078002837
:1033D0000CBF8824C82444EA0141074D45F8321047
:1033E00080F00100054A107083F00103014A137058
:1033F00030BC70473099FF1F0080FF1FB999FF1F35
:1034000010B4431E052B11D872B60A4A52F8230095
:1034100050B14268074941F82320074A32F8134067
:103420000188611A22F8131062B600E000205DF8EE
:10343000044B70471899FF1FF09BFF1F01380528A8
:103440000DD872B6074B53F820302BB10020013055
:103450005B68002BFBD100E0002062B670470020C3
:10346000704700BF7499FF1F38B572B601231B491E
:103470001B4C5A1812F8012C12F0080F24D09A0095
:1034800054F832506DB9164B03EBC2010830486056
:10349000144943F83210144B1A78013A1A7062B684
:1034A00038BD42F0010254F832506DB90C4B03EBB9
:1034B000C201083048600D4943F832100A4B1A78AF
:1034C000013A1A7062B638BD0133072BD1D162B60A
:1034D0000022054B1A7000F025FD38BDA8AF000092
:1034E0000080FF1F88004000AE99FF1FC800400009
:1034F00010B4431E052B37D8400140F010001C4A81
:10350000104472B61B4AD25C032A09D8DFE802F0E5
:1035100019021B050830022216E00830042213E0CD
:10352000154A52F823201AB9134A42F8231003E02F
:10353000124A52F823205160104A42F8231062B612
:1035400012E0032200E005220A4CE25401F10803D4
:10355000436000F00803002B0CBF8823C8230A88AF
:1035600043EA0243036062B65DF8044B704700BF54
:103570000080FF1FD098FF1F7499FF1F8C99FF1FB9
:103580002DE9F84FA84CDFF8F092DFF8F0A2DFF851
:10359000F0B22578EDB215F0040F1DD0A34B1B78C7
:1035A00013F0FF0F16D0A24B1B7803F0FF022BB1D4
:1035B000531EDBB29E4A137003B900BE9D4B1B78AD
:1035C00003F0FF0233B1531EDBB29A4A13700BB9FA
:1035D00000F0E8FD0423237015F0080F00F00583C8
:1035E00099F80030DBB21D0940F03C82924D9E08F4
:1035F00005EBC6035F6855F83630C3F38303013B20
:103600000C2B00F22B82DFE813F0D301D301290247
:103610002902290229022902290203022902290278
:1036200029020D00854A3B68136079685160844A1D
:1036300045F83620002283490A607F490A618A6181
:103640000121814A11709BB240F28162934218D8E5
:10365000B3F5D06F38D2B3F5817F00F0268106D85C
:10366000802B00F0D280822B00F0D5806EE140F2FA
:103670000232934200F02E81B3F5A06F00F06A8110
:1036800064E140F62122934200F064810CD8B3F546
:10369000106F1FD040F62112934200F08581B3F5E0
:1036A000086F00F0AC8051E142F22122934200F019
:1036B000448142F22132934200F04C8142F22102D5
:1036C000934240F043816FE1604B5D68002D40F014
:1036D00016812EE1594B9A78544B1A70564D05F1CC
:1036E000C0062B6A13F0800F03D0686A083800F018
:1036F00019FC0835B542F4D1DFF888810026374639
:10370000534AB05828B1456800F00CFC0DB128466A
:10371000F9E700234E4973504E4AB3504E4BF058D0
:1037200028B1456800F0FEFB0DB12846F9E70023FB
:1037300049497350494AB35028F8023F484BFB5C53
:10374000023B032B0AD8DFE803F002060206002240
:10375000434BDA5502E00122414BDA55013704367A
:10376000182ECDD100223F4B1A7001253E4EDFF8B6
:103770001881314F05EB080313F8013C06F8043BB0
:1037800013F0080F2DD000F0ADFB48B1A90007EBF6
:10379000451200F108035360344A47F8312007E02E
:1037A000AB00002247F833202E4B1A7801321A70F2
:1037B00000F098FB58B1AB0043F0010307EBC301E5
:1037C00000F108024A601E4A47F8332009E0AB00C6
:1037D00043F00103002247F83320224B1A780132CC
:1037E0001A70AA0042F00201002347F8313042F07B
:1037F000030247F8323001355E45BBD136E20B4B50
:103800001B781B4D2B700127A9E0194D00232B704D
:103810006B700227A3E0094B9B88062B36D90F2239
:10382000144B1A70C0E000BF80200740B899FF1FFA
:103830003199FF1FD099FF1F0080FF1FA499FF1F20
:10384000C8004000B498FF1FB999FF1FB0AF000037
:103850001899FF1FB898FF1F7499FF1F8C99FF1FBD
:10386000D098FF1FAE99FF1FC4200740880040007A
:10387000B099FF1FC02007409020074094200740C8
:10388000DC200740EE9BFF1FA8AF0000A04A0021EC
:10389000117051709F4A12F8233013F0020F5CD060
:1038A0009B4D01232B70022759E09B4B9B8803F013
:1038B0007F03062B02DC984A52881AB10F22954BDF
:1038C0001A7071E0934A12F8231021F0020102F8F5
:1038D0002310CBE1904B9B8803F07F03062B02DC87
:1038E0008D4A52881AB10F228A4B1A705CE0894ABD
:1038F00012F8231041F0020102F82310B6E1864BC2
:103900005E889F88854BA3F10C02114633F80C0C9E
:10391000B04209D133F80A0CB84205D1360A032E59
:103920000CBF2F7817891AE00D690C330C32002D6B
:10393000EBD10F22774B1A7036E0794B1A68794B2E
:103940001A60754B9A78784B1A708FE10F22714B81
:103950001A7029E000273D4601E002276C4D6E4BAE
:10396000DB889F4228BF1F46402F34BF3E4640267B
:1039700028463146FFF720FD3544BF1B03D13F2EBB
:1039800000F2798110E0402F34BF3E4640262846A1
:103990003146FFF711FD3544BF1B01D13F2E03D93E
:1039A000624B1D60624B1F8001238AF8003055E096
:1039B000594B1A8842F221039A4214D15D4BD81D0B
:1039C0003A4612F8011B03F8011F8342F9D1073769
:1039D000594B1B68862B02D10F22584B1A700020BE
:1039E0000146FFF7E9FC4C4B1A68554B9A420BD144
:1039F000494B5A68534B9A4206D13A78524B1A7047
:103A000000200146FFF7D8FC504B45F8363025E042
:103A1000464B1E68BEB1464FB7F80080B8F1400F64
:103A200034BF4546402530462946FFF7C5FCC5EB67
:103A300008039BB23B800BB9402D01D1354400E017
:103A400000253A4B1D60344B1B88B3F5A06F05D1A0
:103A5000314B00225A709B783D490B7001238AF844
:103A60000030BFE03B4E9F0806EBC708D8F80420A3
:103A7000A2F10800013DEDB213F0080F70D000F084
:103A800051FA354B53F825304BB35A68324941F857
:103A9000252003F10802C8F80420304A525D032AA9
:103AA00012D8DFE802F002060A0E03212B4A515514
:103AB0000AE00221294A515506E00521274A5155BD
:103AC00002E00421254A515518F0080F0CBF882246
:103AD000C8221B8842EA034346F8373082E01F4B76
:103AE0005B5D032B0BD8DFE803F07D7D020600222F
:103AF0001A4B5A5576E00122184B5A5572E018F0CD
:103B0000080F0CBF02220322144B5A556AE000BF73
:103B1000B099FF1FC0200740A499FF1FBCAF000051
:103B2000B098FF1F049CFF1FE099FF1FB498FF1F70
:103B3000AC99FF1FFB9BFF1FFC9BFF1F3199FF1FD1
:103B40002109000202000100BA99FF1FC8004000CD
:103B5000982007400080FF1F7499FF1FD098FF1F17
:103B600056F837301B0C22F8083C9BB3002322F890
:103B7000063C42F8043C434B53F825301BB9414BFB
:103B800043F8250003E0404B53F8253058603E4B86
:103B900043F825003D4B33F8151032F8082C0A4441
:103BA00023F8152000F09EF960B100F10803C8F871
:103BB000043018F0080F364B364A08BF134646F853
:103BC00037300FE0002346F83730334B1A78013294
:103BD0001A7007E018F0080F2D4B2E4A08BF134645
:103BE00046F8373008232370D3E415F0010F22D0B4
:103BF0002A4902230B700022294B1A70294B2548B1
:103C00001860294C5C6098602848D8601A619A61F5
:103C10000D20274B1870FF232648037008380370C7
:103C200018300270244A13709F22244B1A7001230B
:103C30000B70BDE8F88F15F0800F05D00D221C4BDE
:103C40001A708022403B1A7015F0020F06D0194BF3
:103C50001A78D2B21A700222083B1A7015F0100FAF
:103C60000ED01022164B1A70BDE8F88F00200146C6
:103C7000FFF7A2FB98E628460021FFF79DFB93E69D
:103C8000BDE8F88F1899FF1FB898FF1FF09BFF1F22
:103C9000C800400088004000AE99FF1F94200740F4
:103CA0003099FF1F0080FF1FD898FF1F3499FF1F16
:103CB000C0200740882007408C2007408420074010
:103CC0008020074008B501F02BFE00231B491A464F
:103CD0005A50C81842600833C82BF9D1184B1A68DB
:103CE00042F480221A60154BC3F30721154A117064
:103CF000C3F30741143211701B0E04321370FF23FB
:103D0000343A137008321370783A137001238432F6
:103D1000137000216C3211707C3A137070220A4BC0
:103D20001A704FF40072A3F241331A60102203F1AB
:103D3000C04303F5C8231A7008BD00BF0080FF1FF1
:103D4000348004409C20074049E400E01F2806D846
:103D50000A280BD00B2814BF00202B2070477F2887
:103D600006D8044B184410F8200C704728207047E0
:103D70000020704748AF0000F8B51E4B1B7813F0C9
:103D8000FF0F31D047F2694401251B4E194F2846D9
:103D9000FFF754FB032803D800F0A4F8014680B9CC
:103DA000013C01D033782BB10122134B1A704FF034
:103DB000FF30F8BD00F068FB3B7813F0FF0FE6D151
:103DC00015E00E4B1B7803720D4B1B7843720D4BA5
:103DD0001868C1F80A009B88CB8108230B8001205A
:103DE000FFF786FB0020F8BD4FF0FF30F8BD4FF025
:103DF000FF30F8BDB899FF1FCA99FF1FC899FF1F70
:103E0000C999FF1FC099FF1F08B50B4B19700B4BC9
:103E1000187000225A709A70DA701A715A71FFF78E
:103E2000ABFF38B90023044A1370044A1370FFF73C
:103E3000A3FF08BD08BD00BFC899FF1FC099FF1FA1
:103E400008B5FFF783FF50B100F04002D2B2002A5C
:103E500000F03F0014BF02210021FFF7D5FF08BD8D
:103E600008B510F0800F05D100221C4B1A60FFF737
:103E7000E7FF08BDBF2819D800F03F00174B1B68AB
:103E8000012B08D10022154B1A60154B1B881843D3
:103E9000FFF7D6FF08BD022B1FD1114B1A8842EA4B
:103EA0008010188001220D4B1A6008BDDF2808D849
:103EB00000F01F0080010A4B18800122074B1A6096
:103EC00008BDEF2806D80003054B18800222034BDB
:103ED0001A6008BDFF22014B1A6008BDCC99FF1F74
:103EE000BC99FF1F72B60D4B1A68B2FA82F31D2BF4
:103EF00002D962B6002070474FF00041D94022EA53
:103F0000010206490A6062B6054903EBC303DB0000
:103F1000C8180022CA504260704700BFE08CFF1FE3
:103F20000084FF1F08B50F4BC31A0F4AA2FB0313EF
:103F30001B091D2B14D80D4A12783AB10C4A12787D
:103F400012F0FF0F02D0FFF78FFA08BD72B6094AD0
:103F50004FF0004121FA03F311681943116062B672
:103F600008BD00BF0084FF1F398EE338AE99FF1FE4
:103F7000B899FF1FE08CFF1F10B5134B1B6853B996
:103F8000124B1B7813F0FF0F18D00320FFF738FAFD
:103F90000D4B1860A8B10C4B186843885A1C034499
:103FA0001C7A03889A4206D3FFF7BCFF0022064B17
:103FB0001A60204610BD4280204610BD4FF0FF30F1
:103FC00010BD4FF0FF3010BDDC99FF1FB899FF1FE7
:103FD00008B50D4B1B6883B90C4B1B7813F0FF0F12
:103FE00008D00320FFF70CFA074B186028B94FF0F0
:103FF000FF3008BD4FF0FF3008BD034B1B685A88E7
:104000001344187A08BD00BFDC99FF1FB899FF1F41
:10401000044B9888044B1B681BB11A885B88D31A21
:1040200018447047F09BFF1FDC99FF1F2DE9F047F4
:1040300004460122374B1A700E46002964D0DFF87F
:10404000E080DFF8E0909A46334FD8F8003083BB29
:1040500099F8003013F0FF0F06D100222D4B1A7093
:104060004FF0FF30BDE8F0874AF2F9250420FFF752
:10407000E5F907280AD801238AF80030FFF732FF54
:10408000C8F80000A8B900238AF80030013D01D02B
:104090003B7833B10122204B1A704FF0FF30BDE85E
:1040A000F08700F0F1F999F8003013F0FF0FDDD13F
:1040B000D3E700233B70D8F800104A88C2F14005CE
:1040C000AE4238BF354602F108030B442A444A8009
:1040D000761B3DB1254414F8012B03F8012BAC42AB
:1040E000F9D100E025464B883F2B07D940230B80B0
:1040F0000420FFF7FDF90023C8F800300522074B24
:104100001A700EB12C46A0E70020024B1870BDE8D3
:10411000F08700BFD199FF1FD899FF1FD099FF1FCB
:10412000D499FF1FB899FF1F00B583B002AB03F805
:10413000010D18460121FFF779FF03B05DF804FB7C
:1041400010B5144B1B7813F0FF0F21D00122124B36
:104150001A70124B196851B10024114B1C704B8816
:104160000B800420FFF7C4F90C4B1C600DE0FFF737
:10417000B9FE014630B10022094B1A700420FFF746
:10418000B7F902E00122064B1A700022024B1A70A6
:1041900010BD00BFB899FF1FD199FF1FD499FF1F11
:1041A000D099FF1F08B50E4B1B7813F0FF0F16D1E7
:1041B0000C4B196841B14B880B800420FFF798F92C
:1041C0000022084B1A6008BDFFF78CFE014618B1AB
:1041D0000420FFF78DF908BD0122034B1A7008BDBA
:1041E000D199FF1FD499FF1FD099FF1FF8B506463C
:1041F0000F46144652B1002533681B68304617F845
:10420000011B98470544013CF6D100E000252846F3
:10421000F8BD00BFF0B58BB0164622B903681B6825
:10422000C9B298472FE0012A08BF0A2621B93022D7
:104230008DF82520212417E021243746B1FBF6F51F
:1042400006FB1515EDB22246092D94BF30353735E2
:10425000EDB20DF1280E724402F8245CB1FBF7F1C7
:1042600011B1013CE4B2E9E733B1013CE4B20AAB7D
:1042700023442D2203F8242C03685B6801A9214400
:10428000C4F1220298470BB0F0BD00BF10B5044640
:10429000006802F0DDF9204610BD00BF38B50446C5
:1042A0000D460068013102F025FD18B120606560FF
:1042B000012038BD002038BD10B5044643688B424C
:1042C0000AD2FFF7EBFF034648B1A36833B923686E
:1042D00000221A70012302E0012300E001231846A6
:1042E00010BD00BF70B504460E4615462AB90368D6
:1042F00003B11A700023A36012E01146FFF7DCFF40
:1043000048B9206818B102F0A3F900232360002304
:104310006360A36004E0A5602068314602F010FFEE
:10432000204670BD38B504460023036043608360B7
:1043300003730D4639B1084602F060FF024620467D
:104340002946FFF7CFFF204638BD00BF38B50546E8
:104350000C46006868B16A688B689A4207D309689E
:1043600002F0EEFEA368AB600023A36038BD02F04C
:104370006FF923682B6063686B60A368AB600023F0
:1043800023606360A36038BD10B50446884201D045
:10439000FFF7DCFF204610BD38B504460D4641B19D
:1043A000084602F02BFF024620462946FFF79AFFF7
:1043B00001E000238360204638BD00BF10B586B001
:1043C000044600230360436083600373084601A929
:1043D00000F01CFA204601A9FFF7DEFF204606B0D8
:1043E00010BD00BF83688B4203D903681BB1585CC2
:1043F0007047002070470020704700BF08B5FFF7E6
:10440000F1FF08BD08B5FCF7B3FCFCF79BFB00F01F
:104410003BF8FAE708B5FFF7FBFD08BD08B5FFF765
:10442000ABFD08BD08B5FFF7D3FD08BD08B5FFF724
:1044300087FE08BD08B50846FFF776FE08BD00BF39
:1044400008B508461146FFF7F1FD08BD08B5084656
:10445000FFF706FD012008BD704700BF064B002294
:104460001A714FF47A7199601A7304491960044BF8
:104470001A71044A1A607047EC99FF1F20AF0000C0
:10448000E499FF1F40AF000008B50F4B1B78CBB974
:1044900001220D4B1A70FFF7BBFD08B1FFF7DCFFDF
:1044A00000F0B2FB08B101F005FB00F0ABFE08B173
:1044B00001F096FB01F04AF908B101F027FC002257
:1044C000014B1A7008BD00BFFC99FF1F844641EAEA
:1044D000000313F003036DD1403A41D351F8043B7C
:1044E00040F8043B51F8043B40F8043B51F8043BCE
:1044F00040F8043B51F8043B40F8043B51F8043BBE
:1045000040F8043B51F8043B40F8043B51F8043BAD
:1045100040F8043B51F8043B40F8043B51F8043B9D
:1045200040F8043B51F8043B40F8043B51F8043B8D
:1045300040F8043B51F8043B40F8043B51F8043B7D
:1045400040F8043B51F8043B40F8043B51F8043B6D
:1045500040F8043B51F8043B40F8043B403ABDD2DC
:10456000303211D351F8043B40F8043B51F8043B7E
:1045700040F8043B51F8043B40F8043B51F8043B3D
:1045800040F8043B103AEDD20C3205D351F8043B0D
:1045900040F8043B043AF9D2043208D0D2071CBFD9
:1045A00011F8013B00F8013B01D30B880380604602
:1045B000704700BF082A13D38B078DD010F0030378
:1045C0008AD0C3F10403D21ADB071CBF11F8013BE8
:1045D00000F8013B80D331F8023B20F8023B7BE737
:1045E000043AD9D3013A11F8013B00F8013BF9D262
:1045F0000B7803704B7843708B78837060467047FC
:1046000060223A4B1A70E12201331A70384B1B7842
:10461000082B10D1012203F1804303F56C331A609B
:10462000132334490B6001F5FF2101F2FC710A608C
:10463000314A13601FE00A2B0DD139222F4B1A602B
:1046400013232C490B6001F5FF2101F2FC710A6074
:10465000294A13600FE00C2B0CBF35223D22274B5B
:104660001A60122323490B6001F5FF2101F2FC714E
:104670000A60214A1360224B1B7833B10123214A7F
:10468000136002F50022136005E000231D4A136049
:1046900002F5002213601C4B1B78012B06D88023E7
:1046A0001A4A136002F5002213601AE0042B06D8A0
:1046B0008423164A136002F50022136011E0082BD0
:1046C00006D88523114A136002F50022136008E022
:1046D000102B94BF862387230C4A136002F5002217
:1046E000136001220A4B1A70704700BF0040074058
:1046F000E48CFF1F0CB003400CB00B4008B003402B
:10470000FE99FF1F20B00340E58CFF1F24B003403B
:10471000FD99FF1F024B1A6801321A60704700BFF3
:10472000B098FF1F08B50D4C236813F4802F01D0FB
:10473000FEF726FF236813F4806F01D000F0EEFA35
:10474000236813F4006F01D000F0E6FD236813F432
:10475000805FE9D001F070F8E6E700BF34800440E4
:1047600008B5FFF7DFFF00BF1022014B1A8070472A
:1047700000200540704700BF024A136818441060CB
:1047800018467047E88CFF1FEFF31383ABB9EFF3C4
:104790001083ABB9EFF3058323B10F2B05D9094A79
:1047A000985C03E04FF4807000E00020EFF3118389
:1047B0003BB1834238BF184670474FF0FF30704717
:1047C00000207047F0E300E030B40023B0FBF2F4C7
:1047D00002FB14041D46092C94BF30343734E4B274
:1047E000CC54B0FBF2F008B10133EFE70D440022E6
:1047F0006A70934207DD885CCC5C8C54C8540132EB
:10480000013B9A42F7DB084630BC704710B50C46B6
:10481000002802DBFFF7D8FF10BD2D2301F8013B74
:104820004042FFF7D1FF204610BD00BF194B1A6868
:1048300042F480621A600023174A1370174A1370FB
:10484000174A1370174A1370174A137040F2133245
:10485000164B1A604FF4517204331A60C0F344329D
:10486000134B1A70C0F347125A7000F01F00987271
:1048700004229A700221D9745A7588221A743C2233
:10488000DA7040220B4B1A704FF40052A3F2293316
:104890001A60704734800440889AFF1F059AFF1FF2
:1048A000909AFF1F899AFF1F049AFF1F40A004409F
:1048B00000A006402DE400E0164B9B7803F0EC03CB
:1048C00000F00302134310F0040F18BF43F010036D
:1048D000104A937000F00F03042B04D11346927911
:1048E00042F040029A710B4B5A7902F0EF0210F03D
:1048F000100F18BF42F01002064B5A719B7903F05B
:10490000EF0310F0200F18BF43F01003014A93711A
:10491000704700BF00A0064010B5144B1B6813F48D
:10492000806F21D0124B1B7813F0FF0F06D0104C74
:10493000FFF7AAFD237813F0FF0FF9D14FF40052CF
:104940000C4B1A6000230C4AD37040F203120B493F
:104950000A6004310A600A4A13700A4A13700A4B4B
:104960001B680BB101221A7010BD00BF34800440D7
:10497000049AFF1F84E100E000A0064040A004402C
:10498000889AFF1F059AFF1F009AFF1F10B5044663
:10499000094A137813F0FF0FFBD120460121FEF7DF
:1049A00057FC20460021FEF72FFC044B53F834201F
:1049B000034B1A6010BD00BF049AFF1F08AE000031
:1049C0008C9AFF1F10B50D4B1B6813F4806F12D02B
:1049D00021280CD80A4C0B4B53F8303023600121AE
:1049E000FEF736FC236800221A70012010BD00205B
:1049F000034B186010BD002010BD00BF3480044080
:104A0000009AFF1F08AE0000114B1B6813F4806F63
:104A10001BD0122804D140F202320E4B1A600DE076
:104A2000142804D140F202320B4B1A6006E00B4B03
:104A30005A7B02F0FE025A7300207047074B5A7BE4
:104A400042F001025A73012070470020704700BFF6
:104A5000348004400CA0044014C0044000A0064070
:104A60002DE9F04107461F4B1B6813F4806F37D0C8
:104A70001D4B1B680BB101221A701C4B1C780134B2
:104A8000402C28BF00241A4D1A4EDFF86C8017E026
:104A9000FFF77AFE40280FDC337913F0800F0FD038
:104AA0002B780133402B28BF002318F80320D2B203
:104AB000F271DBB22B7003E0FF2801DDFFF7E4FCAD
:104AC0002B78DBB29C42E3D0FFB20B4B1F55012287
:104AD0000A4B1A70E4B2054B1C70BC22054BDA700D
:104AE000BDE8F081348004408C9AFF1F909AFF1F2C
:104AF000899AFF1F00A00640089AFF1F049AFF1F13
:104B00002DE9F84F0746284B1B6813F4806F49D0F6
:104B1000264B1B680BB101221A7007EB010B5F4596
:104B20003DD2DFF89890224EDFF88C80DFF890A01D
:104B300099F800400134402C28BF00243578EDB2AC
:104B4000A54220D1BC2388F80330FFF71DFE402882
:104B500011DC98F8043013F0800F10D03378013353
:104B6000402B28BF00231AF80320D2B288F8072070
:104B7000DBB2337003E0FF2801DDFFF785FC3378FB
:104B8000DBB29D42E1D017F8013B0AF80430012264
:104B9000084B1A70E4B289F800405F45C8D1BC22C6
:104BA000054BDA70BDE8F88F348004408C9AFF1F03
:104BB000899AFF1F049AFF1F00A00640909AFF1FCA
:104BC000089AFF1F10B5064B1B7813F0FF0F06D095
:104BD000034CFFF759FC237813F0FF0FF9D110BDF8
:104BE000049AFF1F064B1B78DBB2064A1278D2B23A
:104BF00093422CBF3F3202F1FF32D01A704700BF00
:104C0000909AFF1F899AFF1F054B1878C0B2054B79
:104C10001B78DBB2984238BF4030C01A704700BFE3
:104C2000889AFF1F059AFF1F10B4184B1A78D2B24A
:104C3000174B1B78DBB29A4218D001333F2B18D8A0
:104C40001449C85CC0B2DCB211490C701249096841
:104C5000C9B19A4203D300E00023D31A01E04032E5
:104C6000D31A1A2B0FDC00230B700CE04FF0FF302F
:104C700009E0084B1878C0B20021054B1970064BAB
:104C800019680029E8D15DF8044B7047889AFF1F26
:104C9000059AFF1F489AFF1F009AFF1F094B1A78B9
:104CA000D2B2094B1B78DBB29A4207D00133402BBA
:104CB00028BF0023054AD05CC0B270474FF0FF30D8
:104CC000704700BF889AFF1F059AFF1F489AFF1F71
:104CD0000D4B1B6813F4806F14D00C4BDA7802F084
:104CE000CB02DA7040225A74DA7842F03402DA7079
:104CF000074B1A78D2B2074B1A70074B1B680BB1DF
:104D000000221A70704700BF3480044000A00640A3
:104D1000059AFF1F889AFF1F009AFF1F70B43D4B32
:104D20001B7913F0300F33D072B63A4B9B7D03F0F2
:104D3000FF022BB9374BDA7940225A7462B627E06A
:104D400062B6354B1978C9B2344B1C78E4B2314D98
:104D5000334EEB79D8B24B1C402B28BF0023A34223
:104D60001CBFF0541946531E13F0FF02F1D1CAB212
:104D7000294B1A702B4B1B6853B1A1422EBFC4EBB9
:104D80000101C4F1400409192729C4BF01221A7086
:104D9000204BDA78D2B212F0800F27D01B7913F0B3
:104DA000800F23D0204B1C78E4B2204B1B78DBB261
:104DB0009C4210D017491E4D01E0A3420BD0013395
:104DC000402B28BF00230879E85CC0B2C871087D79
:104DD000C0B20728F1D9DBB214490B700D4B1B7917
:104DE00013F0800F02D07C210A4BD97012F0400FD3
:104DF0000ED0084B1B7913F0400F09D000220D4B49
:104E00001A700D4B1B6803B11A703C22014BDA700B
:104E100070BC704700A00640889AFF1F059AFF1FCC
:104E2000489AFF1F009AFF1F909AFF1F899AFF1F41
:104E3000089AFF1F049AFF1F8C9AFF1F194B1A68CC
:104E400042F400621A600023174A1370174A137065
:104E5000174A1370174A1370174A137040F213322F
:104E6000164B1A604FF4517204331A60C0F3443287
:104E7000134B1A70C0F347125A7000F01F0098725B
:104E800004229A700221D9745A7588221A743C221D
:104E9000DA7040220B4B1A704FF40042A3F22B330E
:104EA0001A60704734800440049BFF1F999AFF1FCB
:104EB0000C9BFF1F059BFF1F989AFF1F0CB004401F
:104EC00000B006402FE400E0164B9B7803F0EC03A3
:104ED00000F00302134310F0040F18BF43F0100357
:104EE000104A937000F00F03042B04D113469279FB
:104EF00042F040029A710B4B5A7902F0EF0210F027
:104F0000100F18BF42F01002064B5A719B7903F044
:104F1000EF0310F0200F18BF43F01003014A937104
:104F2000704700BF00B0064010B5144B1B6813F467
:104F3000006F21D0124B1B7813F0FF0F06D0104CDE
:104F4000FFF7A2FA237813F0FF0FF9D14FF40042D4
:104F50000C4B1A6000230C4AD37040F203120B4929
:104F60000A6004310A600A4A13700A4A13700A4B35
:104F70001B680BB101221A7010BD00BF34800440C1
:104F8000989AFF1F84E100E000B006400CB0044096
:104F9000049BFF1F999AFF1F949AFF1F10B50446A8
:104FA000094A137813F0FF0FFBD120460121FEF7C9
:104FB0004FF920460021FEF727F9044B53F834201F
:104FC000034B1A6010BD00BF989AFF1F08AE000087
:104FD000089BFF1F10B50D4B1B6813F4006F12D018
:104FE00021280CD80A4C0B4B53F830302360012198
:104FF000FEF72EF9236800221A70012010BD002050
:10500000034B186010BD002010BD00BF3480044069
:10501000949AFF1F08AE00000D4B1B6813F4006F3D
:1050200013D017280AD140F202320A4B1A600A4BF9
:105030005A7B42F001025A7301207047064B5A7B9B
:1050400002F0FE025A73002070470020704700BF34
:105050003480044008B0044000B006402DE9F0411F
:1050600007461F4B1B6813F4006F37D01D4B1B689E
:105070000BB101221A701C4B1C780134282C28BF5C
:1050800000241A4D1A4EDFF86C8017E0FFF77CFB06
:1050900040280FDC337913F0800F0FD02B780133C9
:1050A000282B28BF002318F80320D2B2F271DBB2FC
:1050B0002B7003E0FF2801DDFFF7E6F92B78DBB268
:1050C0009C42E3D0FFB20B4B1F5501220A4B1A70D2
:1050D000E4B2054B1C70BC22054BDA70BDE8F081D0
:1050E00034800440089BFF1F0C9BFF1F059BFF1F84
:1050F00000B006409C9AFF1F989AFF1F2DE9F84FB9
:105100000746284B1B6813F4006F49D0264B1B68D9
:105110000BB101221A7007EB010B5F453DD2DFF89E
:105120009890224EDFF88C80DFF890A099F800402C
:105130000134282C28BF00243578EDB2A54220D1B7
:10514000BC2388F80330FFF71FFB402811DC98F8D8
:10515000043013F0800F10D033780133282B28BF90
:1051600000231AF80320D2B288F80720DBB233708C
:1051700003E0FF2801DDFFF787F93378DBB29D42BA
:10518000E1D017F8013B0AF804300122084B1A70ED
:10519000E4B289F800405F45C8D1BC22054BDA7003
:1051A000BDE8F88F34800440089BFF1F059BFF1F5C
:1051B000989AFF1F00B006400C9BFF1F9C9AFF1F90
:1051C00010B5064B1B7813F0FF0F06D0034CFFF70A
:1051D0005BF9237813F0FF0FF9D110BD989AFF1FE8
:1051E000064B1B78DBB2064A1278D2B293422CBF30
:1051F000273202F1FF32D01A704700BF0C9BFF1F0D
:10520000059BFF1F054B1878C0B2054B1B78DBB21E
:10521000984238BF4030C01A704700BF049BFF1F40
:10522000999AFF1F10B4184B1A78D2B2174B1B78FB
:10523000DBB29A4218D001333F2B18D81449C85C0E
:10524000C0B2DCB211490C7012490968C9B19A4266
:1052500003D300E00023D31A01E04032D31A1A2B03
:105260000FDC00230B700CE04FF0FF3009E0084B1F
:105270001878C0B20021054B1970064B1968002937
:10528000E8D15DF8044B7047049BFF1F999AFF1FFC
:10529000C49AFF1F949AFF1F094B1A78D2B2094B88
:1052A0001B78DBB29A4207D00133402B28BF002382
:1052B000054AD05CC0B270474FF0FF30704700BF66
:1052C000049BFF1F999AFF1FC49AFF1F0D4B1B6879
:1052D00013F4006F14D00C4BDA7802F0CB02DA70C2
:1052E00040225A74DA7842F03402DA70074B1A78A6
:1052F000D2B2074B1A70074B1B680BB100221A7011
:10530000704700BF3480044000B00640999AFF1FE8
:10531000049BFF1F949AFF1F70B43D4B1B7913F041
:10532000300F33D072B63A4B9B7D03F0FF022BB99E
:10533000374BDA7940225A7462B627E062B6354BB1
:105340001978C9B2344B1C78E4B2314D334EEB7945
:10535000D8B24B1C402B28BF0023A3421CBFF054E3
:105360001946531E13F0FF02F1D1CAB2294B1A702D
:105370002B4B1B6853B1A1422EBFC4EB0101C4F1FA
:10538000400409192729C4BF01221A70204BDA787A
:10539000D2B212F0800F27D01B7913F0800F23D0E8
:1053A000204B1C78E4B2204B1B78DBB29C4210D01F
:1053B00017491E4D01E0A3420BD00133282B28BF13
:1053C00000230879E85CC0B2C871087DC0B2072824
:1053D000F1D9DBB214490B700D4B1B7913F0800F20
:1053E00002D07C210A4BD97012F0400F0ED0084B2E
:1053F0001B7913F0400F09D000220D4B1A700D4B92
:105400001B6803B11A703C22014BDA7070BC704704
:1054100000B00640049BFF1F999AFF1FC49AFF1F0C
:10542000949AFF1F0C9BFF1F059BFF1F9C9AFF1F59
:10543000989AFF1F089BFF1F174B1A6842F480526F
:105440001A600023154A1370154A1370154A137019
:10545000154A1370154A137040F21331144A116043
:105460004FF4517104321160C0F34431114A11708C
:10547000C0F34711517000F01F00907293701374C5
:105480002C23D37040220C4B1A704FF40032A3F23D
:105490002D331A60704700BF34800440809BFF1F8B
:1054A000159BFF1F889BFF1F819BFF1F149BFF1FE6
:1054B00008C0044000C0064031E400E0164B9B7871
:1054C00003F0EC0300F00302134310F0040F18BFC5
:1054D00043F01003104A937000F00F03042B04D123
:1054E0001346927942F040029A710B4B5A7902F0BE
:1054F000EF0210F0100F18BF42F01002064B5A7165
:105500009B7903F0EF0310F0200F18BF43F0100356
:10551000014A9371704700BF00C0064010B5144B9C
:105520001B6813F4805F21D0124B1B7813F0FF0F20
:1055300006D0104CFEF7A8FF237813F0FF0FF9D127
:105540004FF400320C4B1A6000230C4AD37040F227
:1055500003120B490A6004310A600A4A13700A4AAE
:1055600013700A4B1B680BB101221A7010BD00BFEB
:1055700034800440149BFF1F84E100E000C006401B
:1055800008C00440809BFF1F159BFF1F109BFF1F3F
:1055900010B50446094A137813F0FF0FFBD12046DB
:1055A0000121FDF755FE20460021FDF72DFE044B9D
:1055B00053F83420034B1A6010BD00BF149BFF1F2B
:1055C00008AE0000849BFF1F10B50D4B1B6813F441
:1055D000805F12D021280CD80A4C0B4B53F8303086
:1055E00023600121FDF734FE236800221A70012098
:1055F00010BD0020034B186010BD002010BD00BF7F
:1056000034800440109BFF1F08AE00000D4B1B6848
:1056100013F4805F13D00E280AD140F202320A4BF5
:105620001A600A4B5A7B42F001025A7301207047FC
:10563000064B5A7B02F0FE025A730020704700208E
:10564000704700BF3480044004C0044000C00640DE
:105650002DE9F04107461F4B1B6813F4805F37D0DC
:105660001D4B1B680BB101221A701C4B1C780134B6
:10567000282C28BF00241A4D1A4EDFF86C8017E042
:10568000FFF782F840280FDC337913F0800F0FD03A
:105690002B780133282B28BF002318F80320D2B21F
:1056A000F271DBB22B7003E0FF2801DDFEF7ECFEA8
:1056B0002B78DBB29C42E3D0FFB20B4B1F5501228B
:1056C0000A4B1A70E4B2054B1C70AC22054BDA7021
:1056D000BDE8F08134800440849BFF1F889BFF1F3E
:1056E000819BFF1F00C00640189BFF1F149BFF1FDC
:1056F00038B505460C4629B115F8010BFFF7A8FF90
:10570000013CF9D138BD00BF10B5064B1B7813F032
:10571000FF0F06D0034CFEF7B7FE237813F0FF0F00
:10572000F9D110BD149BFF1F064B1B78DBB2064A54
:105730001278D2B293422CBF273202F1FF32D01A34
:10574000704700BF889BFF1F819BFF1F054B187888
:10575000C0B2054B1B78DBB2984238BF4030C01A4C
:10576000704700BF809BFF1F159BFF1F10B4184B95
:105770001A78D2B2174B1B78DBB29A4218D0013399
:105780003F2B18D81449C85CC0B2DCB211490C7068
:1057900012490968C9B19A4203D300E00023D31A21
:1057A00001E04032D31A1A2B0FDC00230B700CE0FF
:1057B0004FF0FF3009E0084B1878C0B20021054BCC
:1057C0001970064B19680029E8D15DF8044B704741
:1057D000809BFF1F159BFF1F409BFF1F109BFF1F00
:1057E000094B1A78D2B2094B1B78DBB29A4207D028
:1057F0000133402B28BF0023054AD05CC0B270475C
:105800004FF0FF30704700BF809BFF1F159BFF1FAD
:10581000409BFF1F054B1A78D2B2054B1A70054BFF
:105820001B680BB100221A70704700BF159BFF1F49
:10583000809BFF1F109BFF1F2F4B1B7913F0200F26
:1058400023D02D4BDB79D9B22C4B1B780133402B65
:1058500028BF00232A4A1278D2B29A4204D0294A99
:10586000D154D9B2254A1170274A116869B1274A23
:105870001278D2B293422EBFC2EB0303C2F14002B0
:105880009B18272BC4BF01230B701B4BDB78DBB2AB
:1058900013F0800F1CD0184A127912F0800F17D025
:1058A0001B4A1178C9B2194A1278D2B2914203D177
:1058B0006C21114AD1700BE00132282A28BF002246
:1058C0001449885CC0B20C49C871D2B20F490A7041
:1058D00013F0400F0ED0084B1B7913F0400F09D086
:1058E00000220D4B1A700D4B1B6803B11A702C224D
:1058F000014BDA70704700BF00C00640809BFF1F5D
:10590000159BFF1F409BFF1F109BFF1F819BFF1FCD
:10591000889BFF1F189BFF1F149BFF1F849BFF1F6B
:1059200000B585B072B61B4B70221A7041211A4A1D
:1059300011700F21013A117080221A701A461378E3
:1059400013F0800FFBD0154B186862B6144B9842C9
:105950009CBF00EB8000400001A90A22FEF734FF43
:105960009DF804307BB908E001A9595C31B1918000
:10597000023201330A2BF7D100E0002301335B0030
:10598000084A137003E0074A53800123ECE705B08F
:105990005DF804FB000002400700024008000240DE
:1059A0007F969800EC8EFF1F08B503681B68C9B28C
:1059B000984708BD08B503681B68C9B2984708BD79
:1059C00008B503681B68C9B2984708BD08B50368E5
:1059D0001B68C9B2984708BD08B54B0803F137608A
:1059E00000F5D830B0FBF1F0FEF720FF08BD00BF96
:1059F00010B514464B0803F1376000F5D830B0FB02
:105A0000F1F0FEF713FF2046FEF756FF10BD00BF72
:105A100008B5FEF781FF08BD08B50846FEF7B6FFDA
:105A200008BD00BF08B50846FEF7CCFF003018BF20
:105A3000012008BD08B50846FEF7E6FF003018BF94
:105A4000012008BD08B5FFF7DFF808BD08B5FFF76E
:105A500025F908BD08B5FFF7E7F808BD08B5FFF759
:105A6000B1F808BD08B5FFF733F908BD08B5FFF771
:105A7000B9F808BD08B50846FEF7F2FF012008BDD9
:105A800008B50846FEF7ECFF012008BD10B5144626
:105A900008461146FFF734F8204610BD38B50D46CC
:105AA000084601F0ABFB044628462146FFF728F8DC
:105AB000204638BD704700BF044B00221A714FF4D6
:105AC0007A7199601A73024A1A6070478C9BFF1FA3
:105AD00058B0000008B503681B68C9B2984708BDF4
